:100000000C942A000C9447000C9447000C94470071
:100010000C9447000C9447000C9447000C949707ED
:100020000C9447000C9447000C9447000C94470034
:100030000C9447000C9447000C9447000C94470024
:100040000C9447000C9447000C9447000C94470014
:100050000C94470011241FBECFE5D8E0DEBFCDBF12
:1000600010E0A0E6B0E0ECE3F7E202C005900D92EC
:10007000A836B107D9F713E0A8E6B0E001C01D9299
:10008000AF35B107E1F70E9406130C949C130C9452
:100090000000DF93CF93CDB7DEB727970FB6F89464
:1000A000DEBF0FBECDBF9D838C836E834F838AE1FD
:1000B00090E00E9421039A83898389819A81009725
:1000C00009F46FC08091680090916900009741F435
:1000D00089819A8190936900809368000E94B002A0
:1000E0008E81823010F081E08E83E981FA81118E59
:1000F000108EE981FA818E81868BE981FA818F8168
:10010000878BE981FA818C819D81918380838981AC
:100110009A8102960E94B70389819A810C960E9467
:10012000B703E981FA8189819A8191878087E98182
:10013000FA8189819A81938B828B8E81282F30E07E
:1001400085E090E0821B930BE981FA819587848793
:10015000E981FA81968980916A00891728F4E981FA
:10016000FA81868980936A00E981FA818689282F3D
:1001700030E0C901880F991F880F991F880F991FB8
:10018000820F931FAC014F585F4F89819A819C0168
:100190002E5F3F4FCA01B9010E94C70381E08B83E4
:1001A00002C08FEF8B838B8127960FB6F894DEBF4A
:1001B0000FBECDBFCF91DF910895DF93CF9300D0D5
:1001C00000D000D0CDB7DEB79C838B837E836D8358
:1001D00020916B0030916C008B819C81820F931F6A
:1001E0009A838983809168009091690002960E94A9
:1001F0007F04E0916800F091690089819A8193837E
:10020000828320916B0030916C0089819A818217E2
:10021000930770F480919700909198002091680066
:10022000309169002E5F3F4FB9010E9413040DC049
:10023000809195009091960020916800309169001E
:100240002E5F3F4FB9010E9413048D819E8100975C
:1002500061F080916800909169009C01245F3F4F9C
:100260008D819E81B9010E94130426960FB6F894E1
:10027000DEBF0FBECDBFCF91DF910895DF93CF9347
:1002800000D0CDB7DEB73AC0F894E0919E00F0916F
:100290009F00868197819A83898389819A810C96B0
:1002A0000E947F04789489819A8102960E947F043B
:1002B000E981FA81968980916A00891728F4E98199
:1002C000FA81868980936A00E981FA818689282FDC
:1002D00030E0C901880F991F880F991F880F991F57
:1002E000820F931FAC014F585F4F89819A819C0107
:1002F0002E5F3F4FCA01B9010E94C7038091990048
:10030000882309F0C1CF0F900F90CF91DF9108950E
:10031000DF93CF9300D000D0CDB7DEB70E94ED0EB3
:1003200020916D0030916E00821B930B90937000B2
:1003300080936F0085C080916B0090916C00019656
:1003400090936C0080936B0080916F00909170008F
:1003500001979093700080936F0080916B00909153
:100360006C00009709F064C0809195009091960010
:100370009A8389838091970090919800909396003A
:100380008093950089819A8190939800809397003B
:100390004FC0E0919500F09196000580F681E02D28
:1003A000868197819C838B83EB81FC8122813381C1
:1003B00080916B0090916C008217930708F440C005
:1003C000F8948B819C8102960E947F04EB81FC81D2
:1003D00084899589009729F08B819C810C960E94D5
:1003E0007F047894EB81FC81968980916A0089175B
:1003F00028F4EB81FC81868980936A00EB81FC8183
:100400008689282F30E0C901880F991F880F991F0E
:10041000880F991F820F931FAC014F585F4F8B813C
:100420009C819C012E5F3F4FCA01B9010E94C70306
:10043000E0919500F09196008081882309F0A9CF82
:1004400080916F0090917000009709F074CF8091B7
:100450006B0090916C0090936E0080936D000F90F4
:100460000F900F900F90CF91DF910895DF93CF936E
:1004700000D0CDB7DEB70E943E010E9488010AC0BD
:1004800080916A00882309F466C080916A008150D7
:1004900080936A0080916A00282F30E0C901880F9C
:1004A000991F880F991F880F991F820F931FFC01B6
:1004B000EF58FF4F8081882319F380916A00282F1D
:1004C00030E0C901880F991F880F991F880F991F65
:1004D000820F931F8F589F4F9A838983E981FA81F6
:1004E0000180F281E02D82819381E981FA819283FA
:1004F0008183E981FA812181328189819A81039600
:100500002817390759F4E981FA810180F281E02D39
:1005100082819381E981FA8192838183E981FA81E1
:100520000180F281E02D868197819093690080930C
:100530006800E0916800F0916900408151818091EC
:10054000680090916900E0916800F0916900278946
:10055000622FFA0109950F900F90CF91DF910895C6
:10056000DF93CF930F92CDB7DEB7198213C0898185
:10057000282F30E0C901880F991F880F991F880F15
:10058000991F820F931F8F589F4F0E948D0389815F
:100590008F5F89838981823050F383E890E00E94E5
:1005A0008D038CE890E00E948D0389E990E00E9421
:1005B0008D0383E890E090939600809395008CE8FB
:1005C00090E090939800809397000F90CF91DF91E7
:1005D0000895DF93CF9300D000D00F92CDB7DEB750
:1005E0009D838C83EC81FD810580F681E02D8681E1
:1005F00097819B838A838A819B810C960E947F04CA
:100600008A819B819C01245F3F4F89E990E0B90179
:100610000E94C703EA81FB819689E0916800F0910E
:1006200069008689981718F081E0898301C01982D2
:1006300089810F900F900F900F900F90CF91DF91C5
:100640000895DF93CF9300D000D0CDB7DEB79C8361
:100650008B831A8219820E94570E8091A20090917A
:10066000A3002B813C81820F931F22E088359207E3
:1006700018F52091A2003091A3008B819C81280F56
:10068000391F8091A2009091A30082179307A0F4D4
:100690008091A2009091A3008C559F4F9A838983EB
:1006A0002091A2003091A3008B819C81820F931F27
:1006B0009093A3008093A2000E94630E89819A8187
:1006C0000F900F900F900F90CF91DF910895DF93CF
:1006D000CF9300D0CDB7DEB79A8389830F900F9068
:1006E000CF91DF910895DF93CF93CDB7DEB710920E
:1006F000A3001092A200CF91DF910895DF93CF93D2
:10070000CDB7DEB72091A2003091A30088E592E03A
:10071000821B930BCF91DF910895DF93CF9300D08D
:10072000CDB7DEB79A83898389819A810396E9815F
:10073000FA8192838183E981FA818FEF9FEF94831D
:10074000838389819A810396E981FA8196838583DF
:1007500089819A810396E981FA8190878783E9816B
:10076000FA8110820F900F90CF91DF910895DF935F
:10077000CF9300D0CDB7DEB79A838983E981FA8120
:10078000118610860F900F90CF91DF910895DF931F
:10079000CF9300D000D000D0CDB7DEB79C838B8341
:1007A0007E836D83EB81FC81818192819A83898331
:1007B000E981FA8182819381ED81FE819383828335
:1007C000EB81FC8181819281ED81FE81958384831F
:1007D000E981FA810280F381E02D8D819E819583EC
:1007E00084838D819E81E981FA81938382838D81C7
:1007F0009E81EB81FC8192838183ED81FE818B81DF
:100800009C8191878087EB81FC8180818F5FEB8168
:10081000FC81808326960FB6F894DEBF0FBECDBF55
:10082000CF91DF910895DF93CF93CDB7DEB72897AF
:100830000FB6F894DEBF0FBECDBF9E838D83788741
:100840006F83EF81F885808191819A838983898183
:100850009A812FEF8F3F920739F4ED81FE818781D6
:1008600090859C838B8318C08D819E8103969C8389
:100870008B8306C0EB81FC81828193819C838B8377
:10088000EB81FC810280F381E02D2081318189811F
:100890009A818217930770F7EB81FC8182819381A3
:1008A000EF81F88593838283EF81F8850280F3815D
:1008B000E02D8F81988595838483EF81F8858B81E6
:1008C0009C81958384838F819885EB81FC819383C0
:1008D0008283EF81F8858D819E8191878087ED816C
:1008E000FE8180818F5FED81FE81808328960FB627
:1008F000F894DEBF0FBECDBFCF91DF910895DF9397
:10090000CF9300D000D0CDB7DEB79C838B83EB8133
:10091000FC81A281B381EB81FC8184819581159654
:100920009C938E931497EB81FC81A481B581EB811C
:10093000FC818281938113969C938E931297EB8115
:10094000FC81808591859A838983E981FA8121815F
:1009500032818B819C812817390741F4EB81FC811E
:1009600084819581E981FA8192838183EB81FC8185
:1009700011861086E981FA8180818150E981FA81AE
:1009800080830F900F900F900F90CF91DF9108957B
:10099000DF93CF93CDB7DEB728970FB6F894DEBFBD
:1009A0000FBECDBF9C838B837E836D8358874F831F
:1009B000EB81FC8181E180838B819C8101979C8309
:1009C0008B83EB81FC8182E280838B819C81019708
:1009D0009C838B83EB81FC8183E380838B819C816F
:1009E00001979C838B838D819E819A8389838981E2
:1009F000EB81FC8180838B819C8101979C838B831D
:100A000089819A81892F99279A8389838981EB81AA
:100A1000FC8180838B819C8101979C838B83EB81FC
:100A2000FC8110828B819C8101979C838B83EB815D
:100A3000FC8180E880838B819C8101979C838B83E0
:100A4000EB81FC8110828B819C8101979C838B833D
:100A5000EB81FC8182E080838B819C8101979C8368
:100A60008B83EB81FC8183E080838B819C81019768
:100A70009C838B83EB81FC8184E080838B819C81D0
:100A800001979C838B83EB81FC8185E080838B8144
:100A90009C8101979C838B83EB81FC8186E0808322
:100AA0008B819C8101979C838B83EB81FC8187E008
:100AB00080838B819C8101979C838B83EB81FC815C
:100AC00088E080838B819C8101979C838B83EB8161
:100AD000FC8189E080838B819C8101979C838B833F
:100AE000EB81FC8180E180838B819C8101979C83D9
:100AF0008B83EB81FC8181E180838B819C810197D9
:100B00009C838B83EB81FC8182E180838B819C8140
:100B100001979C838B83EB81FC8183E180838B81B4
:100B20009C8101979C838B83EB81FC8184E1808392
:100B30008B819C8101979C838B83EB81FC8185E178
:100B400080838B819C8101979C838B83EB81FC81CB
:100B500086E180838B819C8101979C838B83EB81D1
:100B6000FC8187E180838B819C8101979C838B83AF
:100B7000EB81FC8188E180838B819C8101979C8340
:100B80008B83EB81FC8189E180838B819C81019740
:100B90009C838B83EB81FC8180E280838B819C81B1
:100BA00001979C838B83EB81FC8181E280838B8125
:100BB0009C8101979C838B83EB81FC8182E2808303
:100BC0008B819C8101979C838B83EB81FC8183E2E9
:100BD00080838B819C8101979C838B838F819885F7
:100BE0009A8389838981EB81FC8180838B819C81BD
:100BF00001979C838B8389819A81892F99279A8376
:100C000089838981EB81FC8180838B819C81019721
:100C10009C838B83EB81FC8186E280838B819C812A
:100C200001979C838B83EB81FC8187E280838B819E
:100C30009C8101979C838B83EB81FC8188E280837C
:100C40008B819C8101979C838B83EB81FC8189E262
:100C500080838B819C8101979C838B83EB81FC81BA
:100C600080E380838B819C8101979C838B83EB81C4
:100C7000FC8181E380838B819C8101979C838B83A2
:100C80008B819C8128960FB6F894DEBF0FBECDBF36
:100C9000CF91DF910895DF93CF93CDB7DEB70E9458
:100CA0003B07A091FC02B091FD02CD91CDBFDD913B
:100CB000DEBFFF91EF91DF91CF91BF91AF919F91F7
:100CC0008F917F916F915F914F913F912F911F91E4
:100CD0000F91FF90EF90DF90CF90BF90AF909F90DB
:100CE0008F907F906F905F904F903F902F901F90CC
:100CF0000F900FBE0F90089581E0CF91DF9108957E
:100D0000DF93CF93CDB7DEB7CF91DF9108950F92E8
:100D10000FB6F8940F921F9211242F923F924F9288
:100D20005F926F927F928F929F92AF92BF92CF927B
:100D3000DF92EF92FF920F931F932F933F934F9366
:100D40005F936F937F938F939F93AF93BF93CF9353
:100D5000DF93EF93FF93A091FC02B091FD020DB6DB
:100D60000D920EB60D920E94F70FA091FC02B09169
:100D7000FD02CD91CDBFDD91DEBFFF91EF91DF91FF
:100D8000CF91BF91AF919F918F917F916F915F9123
:100D90004F913F912F911F910F91FF90EF90DF9016
:100DA000CF90BF90AF909F908F907F906F905F900B
:100DB0004F903F902F901F900F900FBE0F9008956F
:100DC0000F920FB6F8940F921F9211242F923F9218
:100DD0004F925F926F927F928F929F92AF92BF924B
:100DE000CF92DF92EF92FF920F931F932F933F9337
:100DF0004F935F936F937F938F939F93AF93BF9323
:100E0000CF93DF93EF93FF93A091FC02B091FD028B
:100E10000DB60D920EB60D920E94220F0E94F70F92
:100E2000A091FC02B091FD02CD91CDBFDD91DEBF5E
:100E3000FF91EF91DF91CF91BF91AF919F918F91F2
:100E40007F916F915F914F913F912F911F910F91E2
:100E5000FF90EF90DF90CF90BF90AF909F908F90DA
:100E60007F906F905F904F903F902F901F900F90CA
:100E70000FBE0F900895DF93CF9300D000D000D025
:100E8000CDB7DEB780E49FE1A0E0B0E08B839C8328
:100E9000AD83BE838B819C81AD81BE81689415F842
:100EA000B695A795979587951694D1F78B839C83D4
:100EB000AD83BE838B819C81AD81BE810197A109E9
:100EC000B1098B839C83AD83BE838B8189838B81A6
:100ED0009C81AD81BE81892F9A2FAB2FBB278B833D
:100EE0009C83AD83BE838B818A83EBE4F0E08A81AF
:100EF0008083EAE4F0E0898180838BE08983EEE4FB
:100F0000F0E089818083E9E5F0E08081898389814F
:100F100080618983E9E5F0E08981808326960FB6B8
:100F2000F894DEBF0FBECDBFCF91DF9108950E9430
:100F3000E0061895DF93CF93CDB7DEB728970FB6AD
:100F4000F894DEBF0FBECDBF8F8368871A821982E7
:100F50008F81882309F48CC08FE190E00E942103E7
:100F60009E838D838D819E81009709F481C08F813E
:100F7000282F30E08885882F90E0AC01249FC001A5
:100F8000259F900D349F900D112401969C838B8397
:100F90008B819C810E942103ED81FE81918380835E
:100FA000ED81FE8180819181009709F45DC0ED8122
:100FB000FE81408151818F81282F30E08885882FE4
:100FC00090E0BC01269FC001279F900D369F900D99
:100FD0001124840F951FED81FE8193838283ED811F
:100FE000FE81128EED81FE8180819181ED81FE81F5
:100FF00095838483ED81FE81408151818F81882F8B
:1010000090E09C01215030408885882F90E0BC0101
:10101000269FC001279F900D369F900D1124840FAD
:10102000951FED81FE8197838683ED81FE818F81FF
:10103000838FED81FE818885848FED81FE818FEF26
:10104000858FED81FE818FEF868F8D819E81089641
:101050000E948D038D819E8141960E948D038D811A
:101060009E819A83898304C08D819E810E9467033B
:1010700089819A8128960FB6F894DEBF0FBECDBF46
:10108000CF91DF910895DF93CF93CDB7DEB72C9743
:101090000FB6F894DEBF0FBECDBF9E838D837887D9
:1010A0006F835A8749872B8719820FB6F8940F925E
:1010B000ED81FE81928DED81FE81838D9817D8F4AC
:1010C0008D819E812F813885B9014B850E947E0AD2
:1010D000ED81FE818189882349F08D819E81419631
:1010E0000E949310813011F40E9487060F900FBE6A
:1010F00081E08C875CC089859A85009721F40F90E8
:101100000FBE1C8654C08981882331F4CE0102961B
:101110000E94FB1081E089830F900FBE0E94570E42
:101120000FB6F8940F92ED81FE81858D8F3F19F4F3
:10113000ED81FE81158EED81FE81868D8F3F19F444
:10114000ED81FE81168E0F900FBECE0102969E019C
:10115000275F3F4FB9010E941411882309F58D8143
:101160009E810E94E20B8823A1F08D819E810896CA
:1011700029853A85B9010E945D108D819E810E946A
:101180005B0B0E94630E882309F08FCF0E948706B5
:101190008CCF8D819E810E945B0B0E94630E85CF58
:1011A0008D819E810E945B0B0E94630E1C868C8544
:1011B0002C960FB6F894DEBF0FBECDBFCF91DF9156
:1011C0000895DF93CF93CDB7DEB729970FB6F89484
:1011D000DEBF0FBECDBF9C838B837E836D8358871C
:1011E0004F8329871982EB81FC81928DEB81FC81F1
:1011F000838D981740F58B819C812D813E81B901AB
:1012000049850E947E0AEB81FC81868D8F3F89F49F
:10121000EB81FC818189882399F08B819C814196A7
:101220000E949310882361F0EF81F88581E080832C
:1012300007C0EB81FC81868D8F5FEB81FC81868FFF
:1012400081E08A8301C01A828A8129960FB6F894B8
:10125000DEBF0FBECDBFCF91DF910895DF93CF9357
:10126000CDB7DEB72E970FB6F894DEBF0FBECDBF59
:1012700098878F837A8769875C874B872D871B8246
:101280000FB6F8940F92EF81F885828D882309F4C8
:101290003FC0EF81F885868197819A8389838F810A
:1012A000988529853A85B9010E94130B8D8588237D
:1012B000B1F4EF81F885828D8150EF81F885828FBE
:1012C000EF81F88580858823F1F08F8198850896D5
:1012D0000E9493108130B9F40E94870614C0EF81F8
:1012E000F88589819A8197838683EF81F885818942
:1012F000882349F08F81988541960E949310882316
:1013000011F00E9487060F900FBE81E08E875CC0AF
:101310008B859C85009721F40F900FBE1E8654C0CC
:101320008B81882331F4CE0104960E94FB1081E06A
:101330008B830F900FBE0E94570E0FB6F8940F923A
:10134000EF81F885858D8F3F19F4EF81F885158E33
:10135000EF81F885868D8F3F19F4EF81F885168E21
:101360000F900FBECE0104969E01255F3F4FB9013D
:101370000E941411882309F58F8198850E94AF0B74
:101380008823A1F08F81988541962B853C85B901F2
:101390000E945D108F8198850E945B0B0E94630EF6
:1013A000882309F06DCF0E9487066ACF8F819885C8
:1013B0000E945B0B0E94630E63CF8F8198850E9411
:1013C0005B0B0E94630E1E868E852E960FB6F894D8
:1013D000DEBF0FBECDBFCF91DF910895DF93CF93D6
:1013E000CDB7DEB728970FB6F894DEBF0FBECDBFDE
:1013F0009C838B837E836D8358874F831982EB8117
:10140000FC81828D882371F18B819C812D813E81AD
:10141000B9010E94130BEB81FC81828D8150EB811D
:10142000FC81828FEB81FC81858D8F3F89F4EB817C
:10143000FC818085882399F08B819C8108960E948D
:101440009310882361F0EF81F88581E0808307C0E5
:10145000EB81FC81858D8F5FEB81FC81858F81E045
:101460008A8301C01A828A8128960FB6F894DEBF5B
:101470000FBECDBFCF91DF910895DF93CF9300D002
:101480000F92CDB7DEB79B838A830FB6F8940F9285
:10149000EA81FB81828D89830F900FBE89810F9035
:1014A0000F900F90CF91DF910895DF93CF9300D0ED
:1014B0000F92CDB7DEB79B838A83EA81FB81828D51
:1014C000898389810F900F900F90CF91DF910895BC
:1014D000DF93CF9300D0CDB7DEB79A838983E981BC
:1014E000FA81808191810E94670389819A810E949B
:1014F00067030F900F90CF91DF910895DF93CF9303
:1015000000D000D00F92CDB7DEB79A8389837C8359
:101510006B834D83E981FA81848D882309F474C03B
:101520008D81882399F5E981FA8164817581E9814A
:10153000FA81848D482F50E02B813C81CB01B90189
:101540000E947D13E981FA8124813581E981FA8144
:10155000848D882F90E0820F931FE981FA81958313
:101560008483E981FA8124813581E981FA8182814C
:1015700093812817390708F447C0E981FA818081EF
:101580009181E981FA81958384833EC0E981FA8162
:1015900066817781E981FA81848D482F50E02B8123
:1015A0003C81CB01B9010E947D13E981FA8126813A
:1015B0003781E981FA81848D882F90E0909581951B
:1015C0009F4F820F931FE981FA8197838683E98178
:1015D000FA8126813781E981FA81808191812817FA
:1015E000390790F4E981FA8122813381E981FA8116
:1015F000848D882F90E0909581959F4F820F931F47
:10160000E981FA8197838683E981FA81828D8F5FF0
:10161000E981FA81828F0F900F900F900F900F90B9
:10162000CF91DF910895DF93CF9300D000D0CDB755
:10163000DEB79A8389837C836B83E981FA81808119
:101640009181009789F1E981FA8126813781E981C9
:10165000FA81848D882F90E0820F931FE981FA81AF
:1016600097838683E981FA8126813781E981FA812E
:10167000828193812817390740F0E981FA818081BE
:101680009181E981FA8197838683E981FA81468194
:101690005781E981FA81848D282F30E08B819C81EC
:1016A000BA01A9010E947D130F900F900F900F9027
:1016B000CF91DF910895DF93CF9300D0CDB7DEB700
:1016C0009A8389830FB6F8940F9215C0E981FA8145
:1016D00081898823A9F089819A8141960E9493107B
:1016E000882311F00E947111E981FA81868D815061
:1016F000E981FA81868FE981FA81868D181634F3A3
:10170000E981FA818FEF868F0F900FBE0FB6F894A4
:101710000F9215C0E981FA8180858823A9F089811B
:101720009A8108960E949310882311F00E947111EB
:10173000E981FA81858D8150E981FA81858FE9817E
:10174000FA81858D181634F3E981FA818FEF858F40
:101750000F900FBE0F900F90CF91DF910895DF9300
:10176000CF9300D00F92CDB7DEB79B838A830FB69D
:10177000F8940F92EA81FB81828D1982882311F4FB
:1017800081E089830F900FBE89810F900F900F9099
:10179000CF91DF910895DF93CF9300D00F92CDB713
:1017A000DEB79B838A83EA81FB81828D198288233D
:1017B00011F481E0898389810F900F900F90CF9170
:1017C000DF910895DF93CF9300D00F92CDB7DEB7AE
:1017D0009B838A830FB6F8940F92EA81FB81928DE6
:1017E000EA81FB81838D1982981711F481E0898346
:1017F0000F900FBE89810F900F900F90CF91DF91C6
:101800000895DF93CF9300D00F92CDB7DEB79B83BF
:101810008A83EA81FB81928DEA81FB81838D198223
:10182000981711F481E0898389810F900F900F90B0
:10183000CF91DF910895AF92BF92CF92DF92EF9256
:10184000FF920F931F93DF93CF93CDB7DEB76497CB
:101850000FB6F894DEBF0FBECDBF9F838E8379870E
:1018600068875B874A873D872C870E87F88AEF86D3
:10187000DA8AC98ABC8AAB8A8A859B8529893A8992
:10188000B9010E94A0129C838B838B819C8100975D
:1018900009F499C0EB81FC812789308D8A859B856D
:1018A0000197820F931F9A8389838B819C8128855E
:1018B0003985EB89FC89AA85BB85B9014E859F01D5
:1018C0008D010E94851189819A812E813F814C85ED
:1018D0005D85B9010E94C804EB81FC8191838083FE
:1018E0008F859889009731F0EF85F8898B819C81ED
:1018F000918380830FB6F8940F928091FF028F5FDF
:101900008093FF028091FC029091FD02009769F4A0
:101910008B819C819093FD028093FC028091FF0259
:101920008130A9F40E94DC1112C080910403882345
:1019300071F4E091FC02F091FD0296898E85891781
:1019400030F08B819C819093FD028093FC02EB81AF
:10195000FC81968980910203891728F4EB81FC8130
:10196000868980930203809109038F5F8093090326
:10197000EB81FC81968980910303891728F4EB8120
:10198000FC81868980930303EB81FC818689282F63
:1019900030E0C901880F991F880F991F880F991F80
:1019A000820F931FAC01465F5C4F8B819C819C0131
:1019B0002E5F3F4FCA01B9010E94C70381E08D83AA
:1019C0000F900FBE02C08FEF8D838D81813071F437
:1019D00080910403882351F0E091FC02F091FD0214
:1019E00096898E85981710F40E9487068D816496DB
:1019F0000FB6F894DEBF0FBECDBFCF91DF911F9120
:101A00000F91FF90EF90DF90CF90BF90AF9008952F
:101A1000DF93CF9300D000D000D0CDB7DEB79C834A
:101A20008B830FB6F8940F922091FC023091FD0247
:101A30008B819C818217930711F41C821B828B81FE
:101A40009C81009739F48091FC029091FD029E8365
:101A50008D8304C08B819C819E838D838D819E812B
:101A60009A83898389819A8102960E947F04E98101
:101A7000FA8184899589009729F089819A810C9649
:101A80000E947F0489819A819C012E5F3F4F86E5E9
:101A900093E0B9010E94C7038091FE028F5F80939B
:101AA000FE02809109038F5F809309030F900FBEA0
:101AB00080910403882331F08B819C81009711F47D
:101AC0000E94870626960FB6F894DEBF0FBECDBFE4
:101AD000CF91DF910895DF93CF93CDB7DEB72897ED
:101AE0000FB6F894DEBF0FBECDBF9E838D8378877F
:101AF0006F8319820E94570EED81FE812081318112
:101B00008F819885820F931F9C838B83ED81FE814B
:101B10002081318180910003909101038217930706
:101B2000A8F4ED81FE81208131818B819C81821717
:101B3000930700F520910003309101038B819C8174
:101B400028173907B8F481E0898314C0ED81FE813C
:101B5000208131818B819C818217930748F02091ED
:101B60000003309101038B819C812817390710F401
:101B700081E08983ED81FE818B819C8191838083CB
:101B80008981882359F08091FC029091FD02029690
:101B90000E947F048B819C810E9457120E94630ED9
:101BA0008A838A81882311F40E94870628960FB6BB
:101BB000F894DEBF0FBECDBFCF91DF910895DF93C4
:101BC000CF9300D000D00F92CDB7DEB79D838C832A
:101BD00019828C819D810097D1F00E94570E20912F
:101BE0000003309101038C819D81820F931F9B83A1
:101BF0008A838091FC029091FD0202960E947F04EC
:101C00008A819B810E9457120E94630E8983898179
:101C1000882311F40E9487060F900F900F900F9069
:101C20000F90CF91DF910895AF92BF92CF92DF9244
:101C3000EF92FF920F93DF93CF930F92CDB7DEB762
:101C400020E630E08BE791E1B90145E550E020E086
:101C500030E000E0EE24FF24CC24DD24AA24BB24C1
:101C60000E941B0C89838981813051F4F89481E0B2
:101C70008093040310920103109200030E944B060C
:101C80000F90CF91DF910F91FF90EF90DF90CF9069
:101C9000BF90AF900895DF93CF93CDB7DEB7F894A0
:101CA000109204030E948006CF91DF910895DF9384
:101CB000CF93CDB7DEB7809105038F5F8093050387
:101CC000CF91DF910895DF93CF9300D000D0CDB7AF
:101CD000DEB71A820FB6F8940F92809105038150F7
:101CE0008093050380910503882309F06CC08091DF
:101CF000FF02882309F467C0198241C0E0915203B2
:101D0000F0915303868197819C838B838B819C8187
:101D10000C960E947F048B819C8102960E947F0416
:101D2000EB81FC81968980910303891728F4EB816C
:101D3000FC81868980930303EB81FC818689282FAF
:101D400030E0C901880F991F880F991F880F991FCC
:101D5000820F931F865F9C4F2B813C812E5F3F4FEC
:101D6000B9010E94C703EB81FC819689E091FC02D6
:101D7000F091FD028689981710F081E089838091A7
:101D80004D03882309F0BACF80910603882371F0B0
:101D900007C00E94220F80910603815080930603A2
:101DA000809106038823A9F781E0898389818130A6
:101DB00021F080910703813031F481E08A83109211
:101DC00007030E9487060F900FBE8A810F900F9025
:101DD0000F900F90CF91DF910895DF93CF9300D0B4
:101DE000CDB7DEB70FB6F8940F92809100039091B3
:101DF00001039A8389830F900FBE89819A810F9086
:101E00000F90CF91DF910895DF93CF9300D00F9281
:101E1000CDB7DEB7198280910003909101039B83B7
:101E20008A838A819B810F900F900F90CF91DF91D1
:101E30000895DF93CF93CDB7DEB78091FF02CF91A6
:101E4000DF910895DF93CF9300D000D000D0CDB7BD
:101E5000DEB780910503882309F0BBC080910003A1
:101E60009091010301969093010380930003809168
:101E70000003909101030097D1F58091490390915F
:101E80004A039C838B8380914B0390914C039093E6
:101E90004A03809349038B819C8190934C038093E8
:101EA0004B03809108038F5F80930803E0914903FF
:101EB000F0914A038081882339F48FEF9FEF90934C
:101EC00066008093650013C0E0914903F0914A03D6
:101ED0000580F681E02D868197819E838D83ED813B
:101EE000FE818281938190936600809365002091AA
:101EF00000033091010380916500909166002817DE
:101F0000390708F46BC0E0914903F0914A038081DE
:101F1000882339F48FEF9FEF9093660080936500DC
:101F20005DC0E0914903F0914A030580F681E02D00
:101F3000868197819E838D83ED81FE81828193814D
:101F40009A838983209100033091010389819A81CA
:101F50002817390738F489819A8190936600809315
:101F600065003CC08D819E8102960E947F04ED81B8
:101F7000FE8184899589009729F08D819E810C9638
:101F80000E947F04ED81FE81968980910303891769
:101F900028F4ED81FE81868980930303ED81FE8123
:101FA0008689282F30E0C901880F991F880F991F53
:101FB000880F991F820F931FAC01465F5C4F8D8184
:101FC0009E819C012E5F3F4FCA01B9010E94C70349
:101FD0009ACF809106038F5F8093060326960FB6F3
:101FE000F894DEBF0FBECDBFCF91DF910895DF9390
:101FF000CF9300D0CDB7DEB780910503882349F099
:1020000081E08093070354C0809103038150809343
:10201000030380910303282F30E0C901880F991F23
:10202000880F991F880F991F820F931FFC01E65F8D
:10203000FC4F8081882341F380910303282F30E0F7
:10204000C901880F991F880F991F880F991F820F48
:10205000931F865F9C4F9A838983E981FA8101806F
:10206000F281E02D82819381E981FA8192838183DB
:10207000E981FA812181328189819A810396281729
:10208000390759F4E981FA810180F281E02D8281DA
:102090009381E981FA8192838183E981FA810180C8
:1020A000F281E02D868197819093FD028093FC025E
:1020B0000F900F90CF91DF910895DF93CF9300D0D1
:1020C00000D000D0CDB7DEB79C838B837E836D8339
:1020D0004B815C818091FC029091FD029C01245F08
:1020E0003F4FCA01B9010E9413048091FC029091F4
:1020F000FD0202960E947F042091000330910103AB
:102100008D819E81820F931F9A83898389819A8111
:102110000E94571226960FB6F894DEBF0FBECDBFB1
:10212000CF91DF910895DF93CF9300D000D00F922D
:10213000CDB7DEB79D838C83EC81FD810580F68170
:10214000E02D868197819B838A838A819B810C966F
:102150000E947F0480910503882361F58A819B8119
:1021600002960E947F04EA81FB8196898091030395
:10217000891728F4EA81FB81868980930303EA8129
:10218000FB818689282F30E0C901880F991F880FAD
:10219000991F880F991F820F931FAC01465F5C4FF8
:1021A0008A819B819C012E5F3F4FCA01B9010E9429
:1021B000C7030AC08A819B819C01245F3F4F8DE445
:1021C00093E0B9010E94C703EA81FB819689E091FF
:1021D000FC02F091FD028689981718F081E089834E
:1021E00001C0198289810F900F900F900F900F906E
:1021F000CF91DF910895DF93CF9300D0CDB7DEB7B5
:102200009A83898380910803E981FA818083809190
:10221000000390910103E981FA81928381830F90F9
:102220000F90CF91DF910895DF93CF9300D000D02E
:102230000F92CDB7DEB79B838A837D836C830FB605
:10224000F8940F92EA81FB8190818091080398179E
:1022500071F0EA81FB8121813281809100039091AC
:1022600001038217930718F081E089832FC0209122
:10227000000330910103EA81FB8181819281281B57
:10228000390BEC81FD818081918128173907E0F4B9
:10229000EC81FD8140815181EA81FB812181328184
:1022A0008091000390910103B901681B790BCB0168
:1022B000840F951FEC81FD81918380838A819B81AE
:1022C0000E94FB10198202C081E089830F900FBE2B
:1022D00089810F900F900F900F900F90CF91DF9109
:1022E0000895DF93CF93CDB7DEB781E080930703E6
:1022F000CF91DF910895DF93CF9300D0CDB7DEB7B4
:102300009A8389830E941912FDCF0F931F93DF9345
:10231000CF93CDB7DEB729970FB6F894DEBF0FBEC7
:10232000CDBF9A8389837C836B834D833F832E83C8
:102330001987088789819A8149962B813C81B90147
:1023400048E050E00E948D13E981FA8110A28D814E
:10235000853010F084E08D83E981FA818D81868B50
:1023600089819A8102960E94B70389819A810C968D
:102370000E94B703E981FA8189819A8191878087D8
:102380008D81282F30E085E090E0821B930BE9815E
:10239000FA8195878487E981FA8189819A81938B73
:1023A000828B29960FB6F894DEBF0FBECDBFCF91BA
:1023B000DF911F910F910895DF93CF930F92CDB7C7
:1023C000DEB7198213C08981282F30E0C901880F38
:1023D000991F880F991F880F991F820F931F865F7F
:1023E0009C4F0E948D0389818F5F8983898185300D
:1023F00050F387E393E00E948D0380E493E00E9412
:102400008D038DE493E00E948D0386E593E00E94A6
:102410008D0387E393E090934A038093490380E41C
:1024200093E090934C0380934B030F90CF91DF91F7
:102430000895DF93CF9300D00F92CDB7DEB7809190
:10244000FE02882371F10E94570E809156031B8271
:10245000882311F481E08B830E94630E8B81882393
:1024600001F50FB6F8940F92E0915B03F0915C03D5
:10247000868197819A83898389819A8102960E94B5
:102480007F048091FF0281508093FF028091FE02C1
:1024900081508093FE020F900FBE89819A810E9425
:1024A000F0120F900F900F90CF91DF910895DF936E
:1024B000CF9300D0CDB7DEB79A838983E091FC0239
:1024C000F091FD0289819A81938382832091000398
:1024D0003091010389819A818217930770F480916A
:1024E0004B0390914C032091FC023091FD022E5F32
:1024F0003F4FB9010E9413041EC0409149035091FF
:102500004A038091FC029091FD029C012E5F3F4F97
:10251000CA01B9010E941304209165003091660040
:1025200089819A818217930730F489819A819093E7
:102530006600809365000F900F90CF91DF91089512
:10254000DF93CF93CDB7DEB728970FB6F894DEBFF1
:102550000FBECDBF9C838B837E836D8381E290E031
:102560000E9421039A83898389819A81009769F166
:102570008D819E81009739F48B819C810E9421037B
:1025800098878F8304C08D819E8198878F83E9818E
:10259000FA818F819885908F878BE981FA8187896D
:1025A000908D009739F489819A810E9467031A827D
:1025B00019820BC0E981FA818789908D2B813C813A
:1025C00065EA70E0A9010E94861389819A812896A4
:1025D0000FB6F894DEBF0FBECDBFCF91DF91089547
:1025E000DF93CF9300D0CDB7DEB79A838983E9819B
:1025F000FA818789908D0E94670389819A810E9460
:1026000067030F900F90CF91DF910895AF92BF9223
:10261000CF92DF92EF92FF920F93DF93CF93CDB7DC
:10262000DEB7E1E3F0E08FEF808385E493E160E0E3
:1026300070E045E550E020E030E001E0EE24FF24CA
:10264000CC24DD24AA24BB240E941B0C86E693E143
:1026500060E070E045E550E020E030E000E0EE248E
:10266000FF24CC24DD24AA24BB240E941B0C0E943E
:10267000140E80E090E0CF91DF910F91FF90EF90EA
:10268000DF90CF90BF90AF900895DF93CF9300D0AD
:1026900000D0CDB7DEB79C838B830E94ED0E9A836A
:1026A0008983E2E3F0E08FE08083CE01019668EE5B
:1026B00073E00E946B0DE2E3F0E080EF8083CE01D7
:1026C000019668EE73E00E946B0DE7CFDF93CF9326
:1026D00000D0CDB7DEB79A838983E2E3F0E08FEFD5
:1026E000808388EC90E00E94DF0DE2E3F0E010824E
:1026F00080ED97E00E94DF0DF0CFFB01DC0102C00E
:1027000001900D9241505040D8F70895DC0101C06E
:102710006D9341505040E0F70895FB01DC014150BA
:10272000504048F001900D920020C9F701C01D9261
:0C27300041505040E0F70895F894FFCFAE
:08273C0049444C4500FFFF0079
:00000001FF
