:100000000C942A000C948C3C0C9447000C944700F0
:100010000C9447000C9447000C9447000C94470044
:100020000C9447000C9447000C9447000C94470034
:100030000C9447000C9447000C9447000C94470024
:100040000C9447000C9447000C9447000C94470014
:100050000C94470011241FBECFE5D8E0DEBFCDBF12
:1000600014E0A0E6B0E0EEE1FAE702C005900D92E0
:10007000AC37B107D9F714E0ACE7B4E001C01D928A
:10008000AC38B107E1F70E94833C0C940D3D0C9411
:100090000000EF92FF920F931F937B018C0120E0F1
:1000A00030E040E05FE40E94F50388238CF0C80153
:1000B000B70120E030E040E05FE40E94C1010E940F
:1000C000B3049B01AC01205030404040504806C072
:1000D000C801B7010E94B3049B01AC01B901CA0178
:1000E0001F910F91FF90EF900895A0E0B0E0EBE733
:1000F000F0E00C94D63CDC012B01FA019C9192308B
:1001000008F439C1EB018881823008F433C194309E
:1001100069F4843009F02FC111969C91119789815F
:10012000981709F428C1ABE8B2E025C1843009F47E
:1001300021C18230A9F4923009F01DC19A01AD01AC
:1001400088E0EA010990AE01E90109929E0181501F
:10015000C1F7E201898111969C918923818308C1AD
:10016000923009F407C112962D903C901397EB0141
:100170008A819B811496AD90BD90CD90DC901797AD
:10018000EC80FD800E811F819101281B390BB90184
:1001900037FF04C066277727621B730B6032710537
:1001A0000CF061C0121613066CF537014801062EDB
:1001B00004C096948794779467940A94D2F721E0C8
:1001C00030E040E050E004C0220F331F441F551FB1
:1001D0006A95D2F721503040404050402E213F21B7
:1001E00040235123211531054105510521F021E01E
:1001F00030E040E050E079018A01E628F72808293C
:1002000019293CC0232BD1F1260E371E350146019A
:10021000062E04C096948794779467940A94D2F734
:1002200021E030E040E050E004C0220F331F441FC3
:10023000551F6A95D2F721503040404050402A2146
:100240003B214C215D21211531054105510521F04E
:1002500021E030E040E050E059016A01A628B728CB
:10026000C828D9280BC0821593052CF01C01AA249C
:10027000BB24650103C0EE24FF24870111969C91E5
:10028000D20111968C91981709F445C0992339F041
:10029000A80197012A193B094C095D0906C0A6016E
:1002A00095012E193F09400B510B57FD08C01182D3
:1002B0003382228224833583468357831DC081E0A5
:1002C00081833382228288279927DC01821B930B4A
:1002D000A40BB50B84839583A683B7830DC0220F2F
:1002E000331F441F551F24833583468357838281E0
:1002F000938101979383828324813581468157813D
:10030000DA01C9010197A109B1098F5F9F4FAF4F72
:10031000BF4328F30BC0918333822282EA0CFB1C7B
:100320000C1D1D1DE482F5820683178383E0808304
:10033000248135814681578157FF1AC0C901AA27F8
:1003400097FDA095BA2F81709070A070B0705695EF
:10035000479537952795822B932BA42BB52B848318
:100360009583A683B7838281938101969383828349
:10037000DF0101C0D201CD01CDB7DEB7E2E10C94BF
:10038000F23CA0E2B0E0E7ECF1E00C94E23C6983DF
:100390007A838B839C832D833E834F835887E9E048
:1003A000EE2EF12CEC0EFD1ECE010196B7010E943F
:1003B000A4068E010F5E1F4FCE010596B8010E9464
:1003C000A4068A8991E089278A8BC701B801AE010A
:1003D000475E5F4F0E9475000E94CF05A096E6E041
:1003E0000C94FE3CA0E2B0E0E8EFF1E00C94E23CBB
:1003F00069837A838B839C832D833E834F835887C5
:10040000F9E0EF2EF12CEC0EFD1ECE010196B701A6
:100410000E94A4068E010F5E1F4FCE010596B80103
:100420000E94A406C701B801AE01475E5F4F0E945B
:1004300075000E94CF05A096E6E00C94FE3CA0E279
:10044000B0E0E5E2F2E00C94D63C69837A838B83DA
:100450009C832D833E834F835887CE010196BE0136
:10046000675F7F4F0E94A406CE010596BE016F5EB6
:100470007F4F0E94A4069985923088F08989823046
:10048000C8F0943019F4823051F404C0843029F457
:10049000923081F48BE892E0C6C0923049F420E0BB
:1004A0009A858A89981321E02A87CE010996BBC0D4
:1004B000823049F420E09A858A89981321E02A8BBA
:1004C000CE014196B0C02D843E844F8458886D88FB
:1004D0007E888F88988CEE24FF248701AA24BB2471
:1004E000650140E050E060E070E0E0E0F0E0C10174
:1004F00081709070892BE9F0E60CF71C081D191D1E
:100500009A01AB012A0D3B1D4C1D5D1D80E090E062
:10051000A0E0B0E0E614F7040805190520F481E036
:1005200090E0A0E0B0E0BA01A901480F591F6A1F8E
:100530007B1FAA0CBB1CCC1CDD1C97FE08C081E0F5
:1005400090E0A0E0B0E0A82AB92ACA2ADB2A3196B6
:10055000E032F10549F0660C771C881C991C569412
:10056000479437942794C3CFFA85EA892B893C892D
:100570008B859C85280F391F2E5F3F4F17C0CA01FE
:1005800081709070892B61F016950795F794E79428
:1005900080E090E0A0E0B0E8E82AF92A0A2B1B2BC3
:1005A00076956795579547952F5F3F4F77FDE7CF36
:1005B0000CC0440F551F661F771F17FD4160EE0CDE
:1005C000FF1C001F111F21503040403090E05907A0
:1005D00090E0690790E4790760F32B8F3C8FDB0193
:1005E000CA018F779070A070B07080349105A1051A
:1005F000B10561F447FD0AC0E114F10401051105DC
:1006000029F0405C5F4F6F4F7F4F40781A8EFE1786
:1006100011F081E08A8F4D8F5E8F6F8F78A383E01A
:10062000898FCE0149960E94CF05A096E2E10C94F5
:10063000F23CA8E1B0E0EFE1F3E00C94DE3C69832A
:100640007A838B839C832D833E834F835887B9E0C5
:10065000EB2EF12CEC0EFD1ECE010196B7010E948F
:10066000A4068E010F5E1F4FCE010596B8010E94B1
:10067000A4062985223008F47EC03989323010F46E
:10068000B8017CC08A859A8989278A87243011F02D
:10069000223031F4231709F06EC06BE872E06EC0AF
:1006A000343039F41D861E861F86188A1C861B86E8
:1006B00004C0323021F484E08987B7015FC02B8504
:1006C0003C858B899C89281B390B3C872B87ED84C3
:1006D000FE840F851889AD88BE88CF88D88CEA142F
:1006E000FB040C051D0540F4EE0CFF1C001F111F40
:1006F000215030403C872B8720E030E040E050E044
:1007000080E090E0A0E0B0E460E070E0EA14FB0478
:100710000C051D0540F0282B392B4A2B5B2BEA18C2
:10072000FB080C091D09B695A79597958795EE0CC2
:10073000FF1C001F111F6F5F7F4F6F31710531F775
:10074000DA01C9018F779070A070B0708034910584
:10075000A105B10561F427FD0AC0E114F10401050A
:10076000110529F0205C3F4F4F4F5F4F20782D87B8
:100770003E874F87588BBE01675F7F4FCB010E943A
:10078000CF056896EAE00C94FA3CA8E1B0E0EBEC07
:10079000F3E00C94E23C69837A838B839C832D8302
:1007A0003E834F83588789E0E82EF12CEC0EFD1E26
:1007B000CE010196B7010E94A4068E010F5E1F4F65
:1007C000CE010596B8010E94A4068985823040F0CA
:1007D0008989823028F0C701B8010E941C0701C036
:1007E0008FEF6896E6E00C94FE3CA8E1B0E0EBEFFA
:1007F000F3E00C94E23C69837A838B839C832D83A2
:100800003E834F83588789E0E82EF12CEC0EFD1EC5
:10081000CE010196B7010E94A4068E010F5E1F4F04
:10082000CE010596B8010E94A4068985823040F069
:100830008989823028F0C701B8010E941C0701C0D5
:100840008FEF6896E6E00C94FE3CA8E1B0E0EBE2A6
:10085000F4E00C94E23C69837A838B839C832D8340
:100860003E834F83588789E0E82EF12CEC0EFD1E65
:10087000CE010196B7010E94A4068E010F5E1F4FA4
:10088000CE010596B8010E94A4068985823040F009
:100890008989823028F0C701B8010E941C0701C075
:1008A00081E06896E6E00C94FE3CA8E0B0E0EBE561
:1008B000F4E00C94DF3C9B01AC0183E08983DA0116
:1008C000C9018827B7FD83959927AA27BB27B82E8A
:1008D000211531054105510519F482E089833AC09B
:1008E0008823A9F0203080E0380780E0480780E8BE
:1008F000580729F460E070E080E09FEC30C0EE24FF
:10090000FF248701E21AF30A040B150B02C07901D8
:100910008A018EE1C82ED12CDC82CB82ED82FE8250
:100920000F831887C801B7010E9480050197181628
:10093000190684F4082E04C0EE0CFF1C001F111FC2
:100940000A94D2F7ED82FE820F831887C81AD90A5B
:10095000DC82CB82BA82CE0101960E94CF05289616
:10096000E9E00C94FB3CACE0B0E0E9EBF4E00C9483
:10097000E63C69837A838B839C83CE010196BE011A
:100980006B5F7F4F0E94A4068D81823061F18230BF
:1009900050F1843021F48E81882351F12EC02F81B3
:1009A000388537FD20C06E812F3131051CF066235C
:1009B000F9F023C08EE190E0821B930B29853A85E4
:1009C0004B855C8504C056954795379527958A9544
:1009D000D2F76623B1F050954095309521953F4F61
:1009E0004F4F5F4F0EC020E030E040E050E009C0C4
:1009F0002FEF3FEF4FEF5FE704C020E030E040E033
:100A000050E8B901CA012C96E2E00C94023DA8E03E
:100A1000B0E0EDE0F5E00C94DE3C7B018C0161156B
:100A200071058105910519F482E0898360C083E036
:100A300089838EE1C82ED12CDC82CB82ED82FE82AE
:100A40000F831887C801B7010E948005FC01319708
:100A5000F7FF3BC0222733272E1B3F0B57016801AE
:100A6000022E04C0D694C794B794A7940A94D2F7E0
:100A700040E050E060E070E081E090E0A0E0B0E0B5
:100A800004C0880F991FAA1FBB1F2A95D2F7019790
:100A9000A109B1098E219F21A023B1230097A105AF
:100AA000B10521F041E050E060E070E04A295B29A7
:100AB0006C297D294D835E836F8378878EE190E07A
:100AC0008E1B9F0B9C838B8312C0309781F00E2E60
:100AD00004C0EE0CFF1C001F111F0A94D2F7ED8218
:100AE000FE820F831887CE1ADF0ADC82CB821A823D
:100AF000CE0101960E94CF052896EAE00C94FA3CBC
:100B0000EF92FF920F931F937B018C0180E0E81618
:100B100080E0F80681E0080780E0180788F48FEF8E
:100B2000E816F1040105110531F028F088E090E0A5
:100B3000A0E0B0E017C080E090E0A0E0B0E012C01C
:100B400080E0E81680E0F80680E0080781E01807FA
:100B500028F088E190E0A0E0B0E004C080E190E0FF
:100B6000A0E0B0E020E230E040E050E0281B390B8C
:100B70004A0B5B0B04C016950795F794E7948A958A
:100B8000D2F7F701ED56FD4F8081281B310941094D
:100B90005109C9011F910F91FF90EF900895DF92C5
:100BA000EF92FF920F931F93FC01E480F580068182
:100BB0001781D1808081823048F480E090E0A0E10C
:100BC000B0E0E82AF92A0A2B1B2BA5C0843009F4CF
:100BD0009FC0823021F4EE24FF24870105C0E11478
:100BE000F1040105110519F4E0E0F0E096C062811E
:100BF00073819FEF623879070CF05BC022E83FEF0A
:100C0000261B370B2A3131052CF020E030E040E084
:100C100050E02AC0B801A701022E04C0769567955E
:100C2000579547950A94D2F781E090E0A0E0B0E0B4
:100C300004C0880F991FAA1FBB1F2A95D2F70197DE
:100C4000A109B1098E219F21A023B1230097A105FD
:100C5000B10521F081E090E0A0E0B0E09A01AB01A5
:100C6000282B392B4A2B5B2BDA01C9018F77907027
:100C7000A070B07080349105A105B10539F427FF4B
:100C800009C0205C3F4F4F4F5F4F04C0215C3F4F76
:100C90004F4F5F4FE0E0F0E02030A0E03A07A0E0E7
:100CA0004A07A0E45A0710F0E1E0F0E079018A0178
:100CB00027C06038710564F5FB01E158FF4FD8018A
:100CC000C7018F779070A070B07080349105A10536
:100CD000B10539F4E7FE0DC080E490E0A0E0B0E09B
:100CE00004C08FE390E0A0E0B0E0E80EF91E0A1F18
:100CF0001B1F17FF05C016950795F794E7943196CB
:100D000087E016950795F794E7948A95D1F705C083
:100D1000EE24FF248701EFEFF0E06E2F6795662742
:100D20006795902F9F77D794DD24D7948E2F869543
:100D3000492F462B582F5D29B701CA011F910F91EA
:100D4000FF90EF90DF900895FC01DB01408151811D
:100D50002281622F6F7770E0221F2227221F93814A
:100D6000892F880F822B282F30E0991F9927991FF0
:100D700011969C93119721153105A9F5411551053F
:100D80006105710511F482E037C082E89FEF139688
:100D90009C938E9312979A01AB0167E0220F331F49
:100DA000441F551F6A95D1F783E08C930DC0220F25
:100DB000331F441F551F12968D919C9113970197D5
:100DC00013969C938E931297203080E0380780E032
:100DD000480780E4580758F314962D933D934D939C
:100DE0005C93179708952F3F310579F4411551050C
:100DF0006105710519F484E08C93089564FF03C0C4
:100E000081E08C9312C01C9210C02F573040139673
:100E10003C932E93129783E08C9387E0440F551FE9
:100E2000661F771F8A95D1F7706414964D935D9372
:100E30006D937C93179708951F93DC01FB019C91A0
:100E4000923008F447C08081823008F443C0943067
:100E500051F411961C91843099F58181682F70E0CE
:100E6000611B71093FC0843021F0923031F482302F
:100E7000B9F18181882389F12DC011961C911197B8
:100E80008230F1F081811817D9F412962D913C919E
:100E90001397828193818217930794F0281739075B
:100EA000BCF014968D919D910D90BC91A02D248144
:100EB000358146815781281739074A075B0718F49F
:100EC000112341F00AC082179307A407B50740F425
:100ED000112319F061E070E005C06FEF7FEF02C0F1
:100EE00060E070E0CB011F910895DF93CF93CDB701
:100EF000DEB72C970FB6F894DEBF0FBECDBF1A82B7
:100F0000198280919303282F30E03C872B878B85B3
:100F10009C85009731F02B853C852130310529F0E7
:100F200007C08A8180688A8303C08A818F778A8319
:100F300080919803282F30E03A87298789859A8500
:100F40008330910509F443C029853A852430310561
:100F50007CF489859A858130910529F129853A8526
:100F60002230310554F589859A85009791F056C055
:100F700029853A852530310509F43DC089859A8552
:100F80008530910574F129853A8526303105E9F1DE
:100F900045C08A8181608A838A818D7F8A838A8124
:100FA0008B7F8A833BC08A818E7F8A838A8182601D
:100FB0008A838A818B7F8A8331C08A8181608A8318
:100FC0008A8182608A838A818B7F8A8327C08A8113
:100FD0008E7F8A838A818D7F8A838A8184608A83D7
:100FE0001DC08A8181608A838A818D7F8A838A81FC
:100FF00084608A8313C08A818E7F8A838A8182601B
:101000008A838A8184608A8309C08A8181608A8315
:101010008A8182608A838A8184608A838091940332
:10102000282F30E038872F838F8198858130910574
:1010300081F02F8138852230310591F08F8198859C
:101040000097A1F489818F7B898389818F77898338
:101050000DC089818064898389818F77898306C0E7
:1010600089818064898389818068898380919603DE
:10107000282F30E03E832D838D819E81009731F0B3
:101080002D813E812130310529F007C089818062A0
:10109000898303C089818F7D898380919703282F5D
:1010A00030E03C832B838B819C818330910509F454
:1010B0005EC02B813C812430310584F48B819C817E
:1010C00081309105A1F12B813C81223031050CF05A
:1010D0003EC08B819C810097D1F098C02B813C81D0
:1010E0002530310509F463C08B819C8185309105E1
:1010F0000CF44DC02B813C812630310509F467C0CA
:101100008B819C818730910509F471C07FC08981F2
:101110008E7F898389818D7F898389818B7F898374
:101120008981877F898389818F7E89836FC0898147
:101130008160898389818D7F898389818B7F898380
:101140008981877F898389818F7E89835FC0898137
:101150008E7F898389818260898389818B7F89835E
:101160008981877F898389818F7E89834FC0898127
:101170008160898389818260898389818B7F89836A
:101180008981877F898389818F7E89833FC0898117
:101190008E7F898389818D7F89838981846089831A
:1011A0008981877F898389818F7E89832FC0898107
:1011B0008160898389818D7F898389818460898326
:1011C0008981877F898389818F7E89831FC08981F7
:1011D0008E7F898389818260898389818460898304
:1011E0008981877F898389818F7E89830FC08981E7
:1011F0008160898389818260898389818460898310
:101200008981877F898389818F7E8983E7E2F0E006
:1012100089818083E6E2F0E08A8180832C960FB694
:10122000F894DEBF0FBECDBFCF91DF910895DF935D
:10123000CF9300D0CDB7DEB71A821982A6E2B0E014
:10124000E6E2F0E0808180648C93E6E2F0E0808169
:101250008295869586958370882F90E08170907036
:10126000009799F3E5E2F0E08081882F90E0880F05
:10127000991F880F991F9C0189819A81822B932B3A
:101280009A83898389819A810F900F90CF91DF9102
:101290000895DF93CF930F92CDB7DEB719821982ED
:1012A00020C18981882F90E0880F991F880F991F8E
:1012B000FC01E756FC4F8081282F30E0C901880FE0
:1012C000991F820F931F909581959F4FDC01DA96AD
:1012D0008981882F90E0880F991F880F991FFC0142
:1012E000E756FC4F8081282F30E0C901880F991FF5
:1012F000820F931F909581959F4FFC01FA968081F4
:10130000282F8981882F90E0880F991F880F991FB7
:10131000FC01E656FC4F8081809582238C93898165
:10132000882F90E0880F991F880F991FFC01E756BE
:10133000FC4F8081282F30E0C901880F991F820F50
:10134000931F909581959F4FDC01DA968981882FB4
:1013500090E0880F991F880F991FFC01E756FC4FFA
:101360008081282F30E0C901880F991F820F931FB9
:10137000909581959F4FFC01FA9630818981882F45
:1013800090E0880F991F0196880F991FFC01E7567E
:10139000FC4F20818981882F90E0880F991F880F4A
:1013A000991FFC01E656FC4F80818223832B8C938E
:1013B0008981882F90E0880F991F880F991FFC0161
:1013C000E756FC4F8081282F30E0C901880F991F14
:1013D000820F931F909581959F4FDC01DB96898149
:1013E000882F90E0880F991F880F991FFC01E756FE
:1013F000FC4F8081282F30E0C901880F991F820F90
:10140000931F909581959F4FFC01FB968081282F1B
:101410008981882F90E0880F991F880F991FFC0100
:10142000E656FC4F8081809582238C938981882F9A
:1014300090E0880F991F880F991FFC01E756FC4F19
:101440008081282F30E0C901880F991F820F931FD8
:10145000909581959F4FDC01DB968981882F90E0E4
:10146000880F991F880F991FFC01E756FC4F808158
:10147000282F30E0C901880F991F820F931F909584
:1014800081959F4FFC01FB968081382F8981882FA1
:1014900090E0880F991F880F991FFC01E456FC4FBC
:1014A00020818981882F90E0880F991F880F991FCC
:1014B000FC01E656FC4F80818223282F8981882FEA
:1014C00090E0880F991F0196880F991FFC01E7563D
:1014D000FC4F808180958223832B8C9389818F5F41
:1014E000898389818D3008F4DCCE0F90CF91DF9114
:1014F0000895DF93CF9300D00F92CDB7DEB78A83E4
:101500006B838B81882F90E0880F991F880F991F1C
:10151000FC01E756FC4F8081282F30E0C901880F7D
:10152000991F820F931F909581959F4FFC01FB9609
:10153000808189838B81882F90E0880F991F880F85
:10154000991FFC01E656FC4F8081982F9095898168
:10155000892389838B81882F90E0880F991F880FBA
:10156000991FFC01E656FC4F90818A81982389815E
:10157000892B89838B81882F90E0880F991F880F92
:10158000991FFC01E756FC4F8081282F30E0C901EC
:10159000880F991F820F931F909581959F4FFC0193
:1015A000FB96898180830F900F900F90CF91DF91F0
:1015B0000895DF93CF930F92CDB7DEB789838981EA
:1015C000882F90E0880F991F880F991FFC01E7561C
:1015D000FC4F8081282F30E0C901880F991F820FAE
:1015E000931F909581959F4FFC01F99620818981E9
:1015F000882F90E0880F991F880F991FFC01E656ED
:10160000FC4F808182230F90CF91DF910895DF936B
:10161000CF9300D00F92CDB7DEB78A836B838B81D7
:10162000882F90E0880F991F880F991FFC01E756BB
:10163000FC4F8081282F30E0C901880F991F820F4D
:10164000931F909581959F4FFC01FB968081898324
:101650008B81882F90E0880F991F880F991FFC01BC
:10166000E656FC4F90818A81982389818927898356
:101670008B81882F90E0880F991F880F991FFC019C
:10168000E756FC4F8081282F30E0C901880F991F51
:10169000820F931F909581959F4FFC01FB96898146
:1016A00080830F900F900F90CF91DF910895DF937B
:1016B000CF9300D00F92CDB7DEB78983AFE5B0E00E
:1016C000EFE5F0E0808180688C93A5E5B0E0E5E58A
:1016D000F0E0808181608C938981282F30E03B830A
:1016E0002A838A819B818630910559F02A813B812A
:1016F0002730310571F08A819B818530910589F011
:1017000017C0ABE5B0E0EBE5F0E0808180648C933E
:101710000FC0ABE5B0E0EBE5F0E0808180688C9332
:1017200007C0ABE5B0E0EBE5F0E0808180628C9330
:101730000F900F900F90CF91DF910895DF93CF938B
:10174000CDB7DEB72E970FB6F894DEBF0FBECDBF74
:101750001A8219828091CD03282F30E03E872D8791
:101760008D859E85009749F02D853E852130310578
:1017700039F48A8180648A8303C08A818F7B8A835B
:101780008091CE03282F30E03C872B878B859C856A
:10179000009749F02B853C852130310539F48A8149
:1017A00080618A8303C08A818F7E8A838091CF0380
:1017B000282F30E03A87298789859A85009749F054
:1017C00029853A852130310539F48A8180628A83FE
:1017D00003C08A818F7D8A838091D003282F30E0D7
:1017E00038872F838F819885009731F02F81388536
:1017F0002130310529F007C08A81877F8A8303C0A1
:101800008A8188608A838091D103282F30E03E83CB
:101810002D838D819E81009731F02D813E81213075
:10182000310529F007C08A818B7F8A8303C08A81B2
:1018300084608A838091D203282F30E03C832B83FD
:101840008B819C818330910509F443C02B813C81BD
:10185000243031057CF48B819C818130910529F104
:101860002B813C812230310554F58B819C8100977E
:1018700091F056C02B813C812530310509F43DC0E3
:101880008B819C818530910574F12B813C812630C0
:101890003105E9F145C08A818E7F8A838A818D7FF7
:1018A0008A838981816089833BC08A818E7F8A8314
:1018B0008A818D7F8A8389818E7F898331C08A81E5
:1018C00081608A838A818D7F8A838981816089830F
:1018D00027C08A8181608A838A818D7F8A838981FA
:1018E0008E7F89831DC08A818E7F8A838A818260F0
:1018F0008A8389818160898313C08A818E7F8A83EC
:101900008A8182608A8389818E7F898309C08A81E6
:1019100081608A838A8182608A8389818E7F8983BC
:10192000EDE2F0E08A818083EEE2F0E0898180835D
:101930002E960FB6F894DEBF0FBECDBFCF91DF91CC
:101940000895DF93CF930F92CDB7DEB78983EFE28F
:10195000F0E089818083EEE2F0E080818823DCF78B
:10196000EFE2F0E080810F90CF91DF910895DF9357
:10197000CF9300D00F92CDB7DEB79B838A831982B5
:101980000BC08981282F30E08A819B81FC01E20F06
:10199000F31F80810E94A10C8A819B81009789F7A7
:1019A0000F900F900F90CF91DF910895DF93CF9319
:1019B00000D000D0CDB7DEB79B838A836C831982B9
:1019C00019820EC08981282F30E08A819B81FC0119
:1019D000E20FF31F80810E94A10C89818F5F8983B0
:1019E00099818C81981770F30F900F900F900F9042
:1019F000CF91DF910895DF93CF93CDB7DEB72997CD
:101A00000FB6F894DEBF0FBECDBFE3E5F0E08081F6
:101A100089838091D503282F30E0398728878885EE
:101A2000998581309105E1F028853985223031058D
:101A30002CF488859985009761F026C02885398522
:101A400022303105A1F08885998583309105B1F068
:101A50001BC089818F7B89838981877F898314C09B
:101A60008981806489838981877F89830DC0898189
:101A70008F7B898389818860898306C0898180649E
:101A800089838981886089838091D503882321F0A7
:101A90008091D5038230E1F58091DA03282F30E080
:101AA0003F832E838E819F8181309105E1F02E81CD
:101AB0003F81223031052CF48E819F81009761F0A7
:101AC00057C02E813F8122303105A1F08E819F8148
:101AD00083309105B1F04CC089818F7E89838981E3
:101AE0008F7D898345C089818061898389818F7DCC
:101AF00089833EC089818F7E8983898180628983C1
:101B000037C089818061898389818062898330C0FF
:101B10008091D503813021F08091D503833041F548
:101B20008091DB03282F30E03D832C838C819D81C5
:101B30008230910581F02C813D812330310591F077
:101B40008C819D810097A1F489818F7E8983898111
:101B50008F7D89830DC089818F7E89838981806291
:101B6000898306C0898180618983898180628983B4
:101B70008091D603282F30E03B832A838A819B8182
:101B80008230910599F12A813B812330310554F44B
:101B90008A819B810097B1F02A813B8121303105F8
:101BA000D9F04BC08A819B818430910599F12A81BB
:101BB0003B812430310524F18A819B818530910558
:101BC00099F13BC089818E7F898389818D7F89834B
:101BD00089818B7F898331C08981816089838981F3
:101BE0008D7F898389818B7F898327C089818E7FBF
:101BF000898389818260898389818B7F89831DC0E4
:101C000089818160898389818260898389818B7FD1
:101C1000898313C089818E7F898389818D7F8983A0
:101C200089818460898309C08981816089838981F0
:101C30008D7F8983898184608983E2E5F0E08091EA
:101C4000D8038083ECE5F0E08091D9038083E3E55D
:101C5000F0E08981808329960FB6F894DEBF0FBE2D
:101C6000CDBFCF91DF910895DF93CF930F92CDB782
:101C7000DEB7E3E5F0E08081898389818E7F898307
:101C800089818D7F898389818B7F898389818F7EFB
:101C9000898389818F7D8983E3E5F0E08981808371
:101CA0000F90CF91DF910895DF93CF930F92CDB72F
:101CB000DEB789830E94340E89818093D9030E9404
:101CC000FB0C0F90CF91DF910895DF93CF93CDB7A9
:101CD000DEB72C970FB6F894DEBF0FBECDBFE5E49C
:101CE000F0E080818A838091DD03282F30E03C87FB
:101CF0002B878B859C8581309105E1F02B853C8578
:101D0000223031052CF48B859C85009761F026C02C
:101D10002B853C8522303105A1F08B859C85833055
:101D20009105B1F01BC08A818F7B8A838A81877F6E
:101D30008A8314C08A8180648A838A81877F8A83A8
:101D40000DC08A818F7B8A838A8188608A8306C0DE
:101D50008A8180648A838A8188608A838091DD0396
:101D6000882321F08091DD038230E1F58091E20348
:101D7000282F30E03A87298789859A858130910517
:101D8000E1F029853A85223031052CF489859A8540
:101D9000009761F057C029853A8522303105A1F0BE
:101DA00089859A8583309105B1F04CC08A818F7EF8
:101DB0008A838A818F7D8A8345C08A8180618A83F4
:101DC0008A818F7D8A833EC08A818F7E8A838A81C1
:101DD00080628A8337C08A8180618A838A81806237
:101DE0008A8330C08091DD03813021F08091DD0352
:101DF000833041F58091E303282F30E038872F832B
:101E00008F8198858230910581F02F81388523302C
:101E1000310591F08F8198850097A1F48A818F7E9A
:101E20008A838A818F7D8A830DC08A818F7E8A838F
:101E30008A8180628A8306C08A8180618A838A81DE
:101E400080628A838091DE03282F30E03E832D83D9
:101E50008D819E818230910599F12D813E812330C3
:101E6000310554F48D819E810097B1F02D813E8122
:101E700021303105D9F04BC08D819E818430910590
:101E800099F12D813E812430310524F18D819E818F
:101E90008530910599F13BC08A818E7F8A838A8142
:101EA0008D7F8A838A818B7F8A8331C08A8181601A
:101EB0008A838A818D7F8A838A818B7F8A8327C0E8
:101EC0008A818E7F8A838A8182608A838A818B7FDE
:101ED0008A831DC08A8181608A838A8182608A8325
:101EE0008A818B7F8A8313C08A818E7F8A838A81CD
:101EF0008D7F8A838A8184608A8309C08A81816018
:101F00008A838A818D7F8A838A8184608A83809193
:101F1000DF03282F30E03C832B838B819C81813031
:101F20009105E1F02B813C81223031052CF48B812D
:101F30009C81009761F026C02B813C8122303105C5
:101F4000A1F08B819C8183309105B1F01BC0898108
:101F50008F77898389818F7B898314C08981806889
:101F6000898389818F7B89830DC089818F7B898358
:101F700089818068898306C0898180648983898199
:101F800080688983E9E5F0E089818083E4E4F0E01A
:101F90008091E0038083E3E4F0E08091E1038083BB
:101FA000E5E4F0E08A8180832C960FB6F894DEBFDA
:101FB0000FBECDBFCF91DF910895DF93CF930F92E6
:101FC000CDB7DEB7E5E4F0E08081898389818E7F3B
:101FD000898389818D7F898389818B7F89838981A9
:101FE0008F7E898389818F7D8983E5E4F0E0898113
:101FF00080830F90CF91DF910895DF93CF930F925D
:10200000CDB7DEB789830E94DD0F89818093E1031C
:102010000E94650E0F90CF91DF910895DF93CF93CB
:10202000CDB7DEB760970FB6F894DEBF0FBECDBF59
:102030008091EA039091EB030197CC01A0E0B0E01E
:10204000BC01CD010E9407059B01AC0160E074E278
:1020500084EF98E40E941903DC01CB01BC01CD019F
:102060000E944900DC01CB019C838B83E0E4F0E01B
:102070008B819C81892F99278083E9E2F0E08B8115
:1020800080831A8219828091E403282F30E0388BF4
:102090002F878F8598898130910569F02F85388940
:1020A0002230310561F08F859889009771F48A811B
:1020B00080618A830AC08A8188608A8306C08A8197
:1020C00080618A838A8188608A838091E503282FD2
:1020D00030E03E872D878D859E85009731F02D85D8
:1020E0003E852130310529F007C089818F7B8983A6
:1020F00003C08981806489838091E603282F30E0C2
:102100003C872B878B859C858230910571F12B85CF
:102110003C852330310554F48B859C85009789F0EC
:102120002B853C8521303105B1F039C08B859C85EC
:102130008330910521F12B853C852430310549F10F
:102140002EC089818D7F898389818B7F89838A8154
:102150008B7F8A8324C089818260898389818B7F78
:1021600089838A818B7F8A831AC089818D7F898345
:102170008981846089838A818B7F8A8310C0898169
:10218000846089838981826089838A818B7F8A8345
:1021900006C08981866089838A8184608A83809170
:1021A000E703282F30E03A87298789859A8581308F
:1021B000910569F029853A852230310579F08985C4
:1021C0009A85009771F489818F7C89830AC08981FF
:1021D0008062898389818F7E898303C0898180633E
:1021E00089838091E803282F30E038872F838F81FF
:1021F0009885009731F02F8138852130310529F0FD
:1022000007C08981877F898303C08981886089832A
:102210008091E903282F30E03E832D838D819E81BC
:10222000009731F02D813E812130310529F007C022
:1022300089818E7F898303C0898181608983E0E4FD
:10224000F0E01082898180688983EAE2F0E08A8187
:102250008083E0E4F0E08981808360960FB6F89493
:10226000DEBF0FBECDBFCF91DF910895DF93CF9337
:1022700000D000D0CDB7DEB79A838983EBE2F0E0DF
:102280008081829586958770882F90E0817090700C
:102290000097A1F38091E603282F30E03C832B8345
:1022A0008B819C81992324F12B813C812430310541
:1022B00034F08B819C818430910531F019C0ECE2BF
:1022C000F0E08981808314C0AAE2B0E0EAE2F0E0A5
:1022D00080818E7F8C9389819A8180709170009724
:1022E00039F0AAE2B0E0EAE2F0E0808181608C930C
:1022F0000F900F900F900F90CF91DF910895DF9383
:10230000CF93CDB7DEB728970FB6F894DEBF0FBED8
:10231000CDBFEBE2F0E080818823DCF78091E6031B
:10232000282F30E038872F838F8198859923BCF13F
:102330002F8138852430310534F08F8198858430A1
:10234000910549F02CC0ECE2F0E08081882F90E00C
:102350009C838B8324C0EBE2F0E0808186958170C2
:102360008A83ECE2F0E080818983EBE2F0E0808117
:10237000882F90E08C719070009729F02FEF3FEF3D
:102380003E832D8310C08A81882F90E0382F22272A
:102390008981882F90E0822B932B9C838B838B8168
:1023A0009C819E838D838D819E8128960FB6F894A3
:1023B000DEBF0FBECDBFCF91DF910895DF93CF93E6
:1023C000CDB7DEB782E00E94D90ACF91DF910895A0
:1023D000DF93CF93CDB7DEB786E00E94D90ACF91C5
:1023E000DF910895DF93CF93CDB7DEB787E00E94EA
:1023F000D90ACF91DF910895DF93CF9300D0CDB765
:10240000DEB719828FEF6DE00E94790A8EE00E949C
:10241000D90A8A838A81803F11F4198202C08FEF22
:10242000898389810F900F90CF91DF910895DF9379
:10243000CF93CDB7DEB762970FB6F894DEBF0FBE6D
:10244000CDBF0E94FC11898B8989882309F47FC044
:1024500080E090E0A0EAB1E48B879C87AD87BE87DF
:102460006B857C858D859E8520E030E04AEF54E4C5
:102470000E941F02DC01CB018F839887A987BA874E
:102480006F81788589859A8520E030E040E85FE3B8
:102490000E94250488232CF481E090E09E838D83A4
:1024A0003FC06F81788589859A8520E03FEF4FE7AF
:1024B00057E40E94C50318164CF56B857C858D8505
:1024C0009E8520E030E040E251E40E941F02DC01E2
:1024D000CB01BC01CD010E944900DC01CB019E83F0
:1024E0008D830FC088EC90E09C838B838B819C81D3
:1024F0000197F1F79C838B838D819E8101979E8349
:102500008D838D819E81009769F714C06F817885D6
:1025100089859A850E944900DC01CB019E838D83C9
:102520008D819E819A83898389819A810197F1F7B0
:102530009A8389830E94FC11888B8889882349F0BB
:102540008EE00E94D90A8F878F858A8B04C08FEF17
:102550008F878F858A8B8A8962960FB6F894DEBF43
:102560000FBECDBFCF91DF910895DF93CF93CDB74D
:10257000DEB7A9970FB6F894DEBF0FBECDBF9E01A0
:102580002D5E3F4F3EA32DA384E494E098A78FA334
:1025900090E199A7EFA1F8A500802FA138A52F5FA2
:1025A0003F4F38A72FA3EDA1FEA100822DA13EA190
:1025B0002F5F3F4F3EA32DA339A5315039A789A5E1
:1025C000882341F7198A188A1F86EAC080E190E0C3
:1025D0000F8402C0880F991F0A94E2F780956DE07E
:1025E0000E94790A80E090E0A8E4B2E48B879C879F
:1025F000AD87BE876B857C858D859E8520E030E02C
:102600004AEF54E40E941F02DC01CB018F839887BC
:10261000A987BA876F81788589859A8520E030E01F
:1026200040E85FE30E94250488232CF481E090E0D9
:102630009E838D833FC06F81788589859A8520E050
:102640003FEF4FE757E40E94C50318164CF56B8522
:102650007C858D859E8520E030E040E251E40E943B
:102660001F02DC01CB01BC01CD010E944900DC014D
:10267000CB019E838D830FC088EC90E09C838B837D
:102680008B819C810197F1F79C838B838D819E8147
:1026900001979E838D838D819E81009769F714C079
:1026A0006F81788589859A850E944900DC01CB017C
:1026B0009E838D838D819E819A83898389819A816E
:1026C0000197F1F79A8389838EE00E94D90A8A8B59
:1026D0008A89E82FF0E0FCA3EBA32BA13CA1203BCF
:1026E0003105B1F18BA19CA1813B910534F4EBA1A3
:1026F000FCA1E037F105E1F14BC02BA13CA1203D4D
:102700003105A9F08BA19CA1803E910509F040C044
:102710008F8598899C01220F331F220F331FCE0112
:102720004396FC01E20FF31F8081898B31C08F85B6
:102730009889880F991F880F991F9C012F5F3F4F21
:10274000CE014396FC01E20FF31F8081898B20C0EC
:102750008F859889880F991F01969C01220F331F3E
:10276000CE014396FC01E20FF31F8081898B10C0DC
:102770008F859889880F991F880F991F9C012D5F5D
:102780003F4FCE014396FC01E20FF31F8081898BFE
:102790008989882359F48F8598890196988B8F872A
:1027A0008F859889843091050CF410CF8989A9967A
:1027B0000FB6F894DEBF0FBECDBFCF91DF91089565
:1027C000DF93CF93CDB7DEB78091F003882F90E0F1
:1027D000880F991F880F991FFC01E756FC4F8081D5
:1027E000282F30E0C901880F991F820F931F909501
:1027F00081959F4FDC01DA968091F003882F90E05D
:10280000880F991F880F991FFC01E756FC4F8081A4
:10281000282F30E0C901880F991F820F931F9095D0
:1028200081959F4FFC01FA9680818F7E8C939091C9
:10283000ED0380E0692F0E94790A8091F003882FD0
:1028400090E0880F991F880F991FFC01E756FC4FF5
:102850008081282F30E0C901880F991F820F931FB4
:10286000909581959F4FDC01DA968091F003882F37
:1028700090E0880F991F880F991FFC01E756FC4FC5
:102880008081282F30E0C901880F991F820F931F84
:10289000909581959F4FFC01FA96808180618C9381
:1028A000CF91DF910895DF93CF93CDB7DEB7E9974E
:1028B0000FB6F894DEBF0FBECDBF89AF0E94E01304
:1028C0009091EF0380E0692F0E94790A9091EE03C6
:1028D00080E0692F0E94790A9091F00389AD692FF9
:1028E0000E94790A9091ED038FEF692F0E94790A77
:1028F00080E090E0A0E8BFE38DAB9EABAFABB8AF9C
:102900006DA97EA98FA998AD20E030E04AEF54E48C
:102910000E941F02DC01CB0189AB9AABABABBCAB15
:1029200069A97AA98BA99CA920E030E040E85FE37F
:102930000E94250488232CF481E090E098AB8FA7B7
:102940003FC069A97AA98BA99CA920E03FEF4FE776
:1029500057E40E94C50318164CF56DA97EA98FA9EE
:1029600098AD20E030E040E251E40E941F02DC011B
:10297000CB01BC01CD010E944900DC01CB0198AB29
:102980008FA70FC088EC90E09EA78DA78DA59EA570
:102990000197F1F79EA78DA78FA598A9019798ABEE
:1029A0008FA78FA598A9009769F714C069A97AA97C
:1029B0008BA99CA90E944900DC01CB0198AB8FA791
:1029C0008FA598A99CA78BA78BA59CA50197F1F72C
:1029D0009CA78BA79091ED0380E0692F0E94790A54
:1029E00080E090E0A0E0B0E48FA398A7A9A7BAA7E1
:1029F0006FA178A589A59AA520E030E04AEF54E4BC
:102A00000E941F02DC01CB018BA39CA3ADA3BEA33C
:102A10006BA17CA18DA19EA120E030E040E85FE3A6
:102A20000E94250488232CF481E090E09AA389A3D6
:102A30003FC06BA17CA18DA19EA120E03FEF4FE79D
:102A400057E40E94C50318164CF56FA178A589A517
:102A50009AA520E030E040E251E40E941F02DC0130
:102A6000CB01BC01CD010E944900DC01CB019AA33E
:102A700089A30FC088EC90E098A38F8F8F8D98A1C9
:102A80000197F1F798A38F8F89A19AA101979AA333
:102A900089A389A19AA1009769F714C06BA17CA1B1
:102AA0008DA19EA10E944900DC01CB019AA389A3BC
:102AB00089A19AA19E8F8D8F8D8D9E8D0197F1F7A3
:102AC0009E8F8D8F89AD8295807F9091F003692FC5
:102AD0000E94790A9091ED038FEF692F0E94790A85
:102AE00080E090E0A0E8BFE3898F9A8FAB8FBC8F26
:102AF000698D7A8D8B8D9C8D20E030E04AEF54E417
:102B00000E941F02DC01CB018D8B9E8BAF8BB88F97
:102B10006D897E898F89988D20E030E040E85FE301
:102B20000E94250488232CF481E090E09C8B8B8B01
:102B30003FC06D897E898F89988D20E03FEF4FE7F8
:102B400057E40E94C50318164CF5698D7A8D8B8D5C
:102B50009C8D20E030E040E251E40E941F02DC0145
:102B6000CB01BC01CD010E944900DC01CB019C8B53
:102B70008B8B0FC088EC90E09A8B898B89899A891E
:102B80000197F1F79A8B898B8B899C8901979C8B94
:102B90008B8B8B899C89009769F714C06D897E891E
:102BA0008F89988D0E944900DC01CB019C8B8B8B17
:102BB0008B899C89988B8F878F8598890197F1F7EE
:102BC000988B8F879091ED0380E0692F0E94790A9E
:102BD00080E090E0A0E0B0E48B879C87AD87BE8763
:102BE0006B857C858D859E8520E030E04AEF54E43E
:102BF0000E941F02DC01CB018F839887A987BA87C7
:102C00006F81788589859A8520E030E040E85FE330
:102C10000E94250488232CF481E090E09E838D831C
:102C20003FC06F81788589859A8520E03FEF4FE727
:102C300057E40E94C50318164CF56B857C858D857D
:102C40009E8520E030E040E251E40E941F02DC015A
:102C5000CB01BC01CD010E944900DC01CB019E8368
:102C60008D830FC088EC90E09C838B838B819C814B
:102C70000197F1F79C838B838D819E8101979E83C1
:102C80008D838D819E81009769F714C06F8178854F
:102C900089859A850E944900DC01CB019E838D8342
:102CA0008D819E819A83898389819A810197F1F729
:102CB0009A838983E9960FB6F894DEBF0FBECDBF25
:102CC000CF91DF910895DF93CF93CDB7DEB7E9972A
:102CD0000FB6F894DEBF0FBECDBF89AF0E94E013E0
:102CE0009091F00389AD692F0E94790A9091EF03CA
:102CF0008FEF692F0E94790A9091EE0380E0692F8F
:102D00000E94790A9091ED038FEF692F0E94790A52
:102D100080E090E0A0E8BFE38DAB9EABAFABB8AF77
:102D20006DA97EA98FA998AD20E030E04AEF54E468
:102D30000E941F02DC01CB0189AB9AABABABBCABF1
:102D400069A97AA98BA99CA920E030E040E85FE35B
:102D50000E94250488232CF481E090E098AB8FA793
:102D60003FC069A97AA98BA99CA920E03FEF4FE752
:102D700057E40E94C50318164CF56DA97EA98FA9CA
:102D800098AD20E030E040E251E40E941F02DC01F7
:102D9000CB01BC01CD010E944900DC01CB0198AB05
:102DA0008FA70FC088EC90E09EA78DA78DA59EA54C
:102DB0000197F1F79EA78DA78FA598A9019798ABCA
:102DC0008FA78FA598A9009769F714C069A97AA958
:102DD0008BA99CA90E944900DC01CB0198AB8FA76D
:102DE0008FA598A99CA78BA78BA59CA50197F1F708
:102DF0009CA78BA79091ED0380E0692F0E94790A30
:102E000080E090E0A0EAB0E48FA398A7A9A7BAA7B2
:102E10006FA178A589A59AA520E030E04AEF54E497
:102E20000E941F02DC01CB018BA39CA3ADA3BEA318
:102E30006BA17CA18DA19EA120E030E040E85FE382
:102E40000E94250488232CF481E090E09AA389A3B2
:102E50003FC06BA17CA18DA19EA120E03FEF4FE779
:102E600057E40E94C50318164CF56FA178A589A5F3
:102E70009AA520E030E040E251E40E941F02DC010C
:102E8000CB01BC01CD010E944900DC01CB019AA31A
:102E900089A30FC088EC90E098A38F8F8F8D98A1A5
:102EA0000197F1F798A38F8F89A19AA101979AA30F
:102EB00089A389A19AA1009769F714C06BA17CA18D
:102EC0008DA19EA10E944900DC01CB019AA389A398
:102ED00089A19AA19E8F8D8F8D8D9E8D0197F1F77F
:102EE0009E8F8D8F89AD8295807F9091F003692FA1
:102EF0000E94790A9091ED038FEF692F0E94790A61
:102F000080E090E0A0E8BFE3898F9A8FAB8FBC8F01
:102F1000698D7A8D8B8D9C8D20E030E04AEF54E4F2
:102F20000E941F02DC01CB018D8B9E8BAF8BB88F73
:102F30006D897E898F89988D20E030E040E85FE3DD
:102F40000E94250488232CF481E090E09C8B8B8BDD
:102F50003FC06D897E898F89988D20E03FEF4FE7D4
:102F600057E40E94C50318164CF5698D7A8D8B8D38
:102F70009C8D20E030E040E251E40E941F02DC0121
:102F8000CB01BC01CD010E944900DC01CB019C8B2F
:102F90008B8B0FC088EC90E09A8B898B89899A89FA
:102FA0000197F1F79A8B898B8B899C8901979C8B70
:102FB0008B8B8B899C89009769F714C06D897E89FA
:102FC0008F89988D0E944900DC01CB019C8B8B8BF3
:102FD0008B899C89988B8F878F8598890197F1F7CA
:102FE000988B8F879091ED0380E0692F0E94790A7A
:102FF00080E090E0A0EAB0E48B879C87AD87BE8735
:103000006B857C858D859E8520E030E04AEF54E419
:103010000E941F02DC01CB018F839887A987BA87A2
:103020006F81788589859A8520E030E040E85FE30C
:103030000E94250488232CF481E090E09E838D83F8
:103040003FC06F81788589859A8520E03FEF4FE703
:1030500057E40E94C50318164CF56B857C858D8559
:103060009E8520E030E040E251E40E941F02DC0136
:10307000CB01BC01CD010E944900DC01CB019E8344
:103080008D830FC088EC90E09C838B838B819C8127
:103090000197F1F79C838B838D819E8101979E839D
:1030A0008D838D819E81009769F714C06F8178852B
:1030B00089859A850E944900DC01CB019E838D831E
:1030C0008D819E819A83898389819A810197F1F705
:1030D0009A8389839091EF0380E0692F0E94790A97
:1030E000E9960FB6F894DEBF0FBECDBFCF91DF914A
:1030F0000895DF93CF93CDB7DEB76C970FB6F894F2
:10310000DEBF0FBECDBF80E090E0AAEFB4E4898FB0
:103110009A8FAB8FBC8F698D7A8D8B8D9C8D20E0C3
:1031200030E04AEF54E40E941F02DC01CB018D8B9A
:103130009E8BAF8BB88F6D897E898F89988D20E0AB
:1031400030E040E85FE30E94250488232CF481E00E
:1031500090E09C8B8B8B3FC06D897E898F89988D89
:1031600020E03FEF4FE757E40E94C50318164CF5E7
:10317000698D7A8D8B8D9C8D20E030E040E251E4AA
:103180000E941F02DC01CB01BC01CD010E9449005D
:10319000DC01CB019C8B8B8B0FC088EC90E09A8B71
:1031A000898B89899A890197F1F79A8B898B8B8909
:1031B0009C8901979C8B8B8B8B899C89009769F7E5
:1031C00014C06D897E898F89988D0E944900DC0129
:1031D000CB019C8B8B8B8B899C89988B8F878F8560
:1031E00098890197F1F7988B8F879091ED0380E094
:1031F000692F0E94790A83E30E94531482E30E949C
:10320000531488E20E9453148CE00E94531481E00E
:103210000E94531480E090E0A8E4B2E48B879C877E
:10322000AD87BE876B857C858D859E8520E030E0EF
:103230004AEF54E40E941F02DC01CB018F83988780
:10324000A987BA876F81788589859A8520E030E0E3
:1032500040E85FE30E94250488232CF481E090E09D
:103260009E838D833FC06F81788589859A8520E014
:103270003FEF4FE757E40E94C50318164CF56B85E6
:103280007C858D859E8520E030E040E251E40E94FF
:103290001F02DC01CB01BC01CD010E944900DC0111
:1032A000CB019E838D830FC088EC90E09C838B8341
:1032B0008B819C810197F1F79C838B838D819E810B
:1032C00001979E838D838D819E81009769F714C03D
:1032D0006F81788589859A850E944900DC01CB0140
:1032E0009E838D838D819E819A83898389819A8132
:1032F0000197F1F79A83898386E00E9453146C96B4
:103300000FB6F894DEBF0FBECDBFCF91DF91089509
:10331000DF93CF9300D0CDB7DEB79A8389830AC0FD
:10332000E981FA8180810E94631689819A810196E0
:103330009A838983E981FA818081882389F70F90B4
:103340000F90CF91DF910895DF93CF93CDB7DEB784
:1033500064970FB6F894DEBF0FBECDBF8B8B6C8B1E
:1033600080E88F8780EC888B84E9898B84ED8A8B59
:103370008C89882F90E09C0121503040CE010F961F
:10338000FC01E20FF31F90818B89890F81500E940D
:10339000531480E090E0A8ECB2E48B879C87AD8763
:1033A000BE876B857C858D859E8520E030E04AEF69
:1033B00054E40E941F02DC01CB018F839887A98708
:1033C000BA876F81788589859A8520E030E040E86A
:1033D0005FE30E94250488232CF481E090E09E8323
:1033E0008D833FC06F81788589859A8520E03FEF86
:1033F0004FE757E40E94C50318164CF56B857C8592
:103400008D859E8520E030E040E251E40E941F025D
:10341000DC01CB01BC01CD010E944900DC01CB01E4
:103420009E838D830FC088EC90E09C838B838B817F
:103430009C810197F1F79C838B838D819E810197FD
:103440009E838D838D819E81009769F714C06F8163
:10345000788589859A850E944900DC01CB019E838D
:103460008D838D819E819A83898389819A81019739
:10347000F1F79A83898364960FB6F894DEBF0FBE86
:10348000CDBFCF91DF910895DF93CF93CDB7DEB756
:1034900081E00E945314CF91DF910895DF93CF9381
:1034A000CDB7DEB78EE00E945314CF91DF9108951F
:1034B000DF93CF93CDB7DEB788E00E945314CF914E
:1034C000DF910895DF93CF93CDB7DEB78CE10E94F3
:1034D0005314CF91DF910895DF93CF93CDB7DEB72B
:1034E0008BE10E945314CF91DF910895DF93CF9326
:1034F00000D000D0CDB7DEB79B838A836C838C81EC
:10350000882F90E00896880F991F880F991F880FC1
:10351000991F0E94531419820EC08981282F30E010
:103520008A819B81FC01E20FF31F80810E94631658
:1035300089818F5F89838981883078F30F900F901C
:103540000F900F90CF91DF910895DF93CF93CDB778
:10355000DEB78FEF60E00E94790ACF91DF91089586
:10356000DF93CF93CDB7DEB780E060E00E94790AA9
:10357000CF91DF910895DF93CF93CDB7DEB78FEF73
:1035800060E00E94070BCF91DF910895DF93CF9306
:10359000CDB7DEB78FEF61E00E94790ACF91DF915E
:1035A0000895DF93CF93CDB7DEB780E061E00E944E
:1035B000790ACF91DF910895DF93CF93CDB7DEB72E
:1035C0008FEF61E00E94070BCF91DF910895DF93A9
:1035D000CF930F92CDB7DEB7898389818295807FA3
:1035E00063E00E94790A0F90CF91DF910895DF93F5
:1035F000CF93CDB7DEB78FEF64E00E94790ACF9109
:10360000DF910895DF93CF93CDB7DEB780E064E01C
:103610000E94790ACF91DF910895DF93CF93CDB7C0
:10362000DEB78FEF65E00E94790ACF91DF910895B0
:10363000DF93CF93CDB7DEB780E065E00E94790AD3
:10364000CF91DF910895DF93CF93CDB7DEB7289761
:103650000FB6F894DEBF0FBECDBF9C838B837E83F5
:103660006D8358874F831A82198215C029813A8148
:103670008B819C81DC01A20FB31F29813A818D814E
:103680009E81FC01E20FF31F80818C9389819A81D6
:1036900001969A83898329813A818F819885281799
:1036A000390720F328960FB6F894DEBF0FBECDBFC2
:1036B000CF91DF910895DF93CF9300D000D000D059
:1036C000CDB7DEB79C838B837E836D831A8219828C
:1036D0000DC029813A818B819C81FC01E20FF31F8F
:1036E000108289819A8101969A83898329813A81FE
:1036F0008D819E812817390760F326960FB6F894BE
:10370000DEBF0FBECDBFCF91DF910895DF93CF9382
:1037100000D000D0CDB7DEB789837B836A834C832A
:103720000F900F900F900F90CF91DF910895DF933E
:10373000CF9300D0CDB7DEB780917D04882311F000
:103740000E94C21C1A82198258C089819A81FC0188
:10375000EE50FC4F8081803340F189819A81FC01D9
:10376000EE50FC4F80818A3300F580917E048823DF
:1037700061F489819A81FC01EE50FC4F8081809335
:103780008B0481E080937E0433C080917E0481307D
:1037900079F589819A81FC01EE50FC4F80818093FC
:1037A000890481E080937F0423C080918004882372
:1037B00049F489819A81FC01EE50FC4F80810E947E
:1037C0000C1C16C080918004882391F080917F04A6
:1037D000813071F48DE30E940C1C80918104805D26
:1037E00080938B0481E080937E0481E080937D044C
:1037F00089819A8101969A83898380917C04282FFC
:1038000030E089819A81821793070CF49ECF0F9044
:103810000F90CF91DF910895DF93CF9300D000D028
:10382000CDB7DEB78A838A81282F30E03C832B8393
:103830008B819C818D339105E1F12B813C81233477
:10384000310539F08B819C818B32910509F463C07D
:1038500069C010927C0410927D0410928B04109227
:103860007E041092890410927F0410928A041092B0
:103870008004109281041982198211C08981882FD5
:1038800090E0FC01EE50FC4F10828981882F90E07F
:10389000FC01EE5FFB4F108289818F5F89838981F4
:1038A000803160F30E94441A81E061E00E94A41913
:1038B00042C080917E04813009F03DC08091800437
:1038C0008130C9F580917F048130A9F58091800411
:1038D000882389F180918A04882F90E081309105B6
:1038E00051F590918B0480918904890F80568093C3
:1038F000810480918104805D809302041092110400
:1039000081E080937D0410928A048091800481502C
:103910008093800410C081E080938A0481E08093CA
:10392000800409C082E094E020E630E0B90140E183
:1039300050E00E94231B0F900F900F900F90CF919B
:10394000DF910895DF93CF9300D00F92CDB7DEB70C
:103950000E94B5128B838B818A830E94B5128B8360
:103960009B818A81981731F08B81882319F08B8194
:10397000898301C0198289810F900F900F90CF9198
:10398000DF910895DF93CF93CDB7DEB780917D04AB
:103990008823D1F00E94441A81E061E00E94A419BA
:1039A00082EF93E00E94881981E062E00E94A419EE
:1039B00082E094E00E94881980917C048F5F61E02E
:1039C0000E94A41910927D04CF91DF910895DF9396
:1039D000CF9300D0CDB7DEB70E94A21C8A838A8124
:1039E000882309F4C2C080918204853008F062C047
:1039F0008A81803308F45EC08A818A3308F05AC015
:103A000080918A04882359F580918204882F90E060
:103A10009C01220F331FC901880F991F880F991F1E
:103A2000280F391F8A81882F90E0C097820F931F3B
:103A3000909388048093870480918204882F90E07B
:103A40000196FC01EE50FC4F8A81808380918204B4
:103A50008F5F8093820481E080937D0486C0809193
:103A60008204882F90E09C01220F331FC901880F28
:103A7000991F880F991F280F391F8A81882F90E07E
:103A8000C097820F931F9093860480938504809142
:103A90008204882F90E00996FC01EE50FC4F8A8149
:103AA0008083809182048F5F8093820481E0809381
:103AB0007D045BC08A818B3261F481E080938A044B
:103AC0008A818093F90381E080937D0410928204BF
:103AD0004CC08A818D3309F048C08A8180930104EB
:103AE00080918A04882F90E081309105C9F520915A
:103AF0008704309188048091850490918604820F18
:103B0000931F909384048093830480918304909105
:103B1000840489831092820420C080918204282F1B
:103B200030E08CE090E0AC01421B530B9A0189819C
:103B30009AE0692F0E94B63C892F805DF901EE5F03
:103B4000FB4F808389819AE0692F0E94B63C89836C
:103B5000809182048F5F8093820489818823E9F6B3
:103B600081E080937D04109282048091850490917D
:103B700086048733910511F40E94A51A0F900F90C7
:103B8000CF91DF9108950F931F93DF93CF93CDB71C
:103B9000DEB7CD5DD1400FB6F894DEBF0FBECDBF0E
:103BA0000E94791884E194E060E00E94761A8CE12A
:103BB00094E061E00E94761A84E294E062E00E9460
:103BC000761A8CE294E063E00E94761A84E394E033
:103BD00064E00E94761A8CE394E065E00E94761A15
:103BE00081E061E00E94A41986E690E00E948819B5
:103BF000FE01E752FE4F80E090E0AAEFB4E480833C
:103C00009183A283B3838E010B521E4FFE01E752B4
:103C1000FE4F608171818281938120E030E04AEF24
:103C200054E40E941F02DC01CB01F80180839183E0
:103C3000A283B383FE01EB52FE4F608171818281CA
:103C4000938120E030E040E85FE30E942504882370
:103C500044F4FE01ED52FE4F81E090E091838083B9
:103C600064C0FE01EB52FE4F6081718182819381BD
:103C700020E03FEF4FE757E40E94C50318160CF011
:103C800043C0FE01E752FE4F6081718182819381C2
:103C900020E030E040E251E40E941F02DC01CB0151
:103CA0008E010D521E4FBC01CD010E944900DC0166
:103CB000CB01F801918380831FC0FE01EF52FE4FBC
:103CC00088EC90E091838083FE01EF52FE4F80816B
:103CD00091810197F1F7FE01EF52FE4F91838083AE
:103CE000DE01AD52BE4FFE01ED52FE4F808191814B
:103CF000019711969C938E93FE01ED52FE4F8081A9
:103D000091810097D1F627C08E010D521E4FFE0102
:103D1000EB52FE4F60817181828193810E94490044
:103D2000DC01CB01F80191838083DE01A153BE4FFA
:103D3000FE01ED52FE4F808191818D939C93FE0197
:103D4000E153FE4F808191810197F1F7FE01E1532C
:103D5000FE4F918380838BE690E00E948819FE01DC
:103D6000E553FE4F80E090E0AAEFB4E480839183B6
:103D7000A283B3838E0109531E4FFE01E553FE4F0C
:103D8000608171818281938120E030E04AEF54E4C8
:103D90000E941F02DC01CB01F80180839183A28382
:103DA000B383FE01E953FE4F60817181828193816B
:103DB00020E030E040E85FE30E942504882344F4DB
:103DC000FE01EB53FE4F81E090E09183808364C05D
:103DD000FE01E953FE4F608171818281938120E071
:103DE0003FEF4FE757E40E94C50318160CF043C09D
:103DF000FE01E553FE4F608171818281938120E055
:103E000030E040E251E40E941F02DC01CB018E0150
:103E10000B531E4FBC01CD010E944900DC01CB01B8
:103E2000F801918380831FC0FE01ED53FE4F88ECA3
:103E300090E091838083FE01ED53FE4F808191815C
:103E40000197F1F7FE01ED53FE4F91838083DE0170
:103E5000AB53BE4FFE01EB53FE4F80819181019722
:103E600011969C938E93FE01EB53FE4F80819181BE
:103E70000097D1F627C08E010B531E4FFE01E95368
:103E8000FE4F60817181828193810E944900DC0133
:103E9000CB01F80191838083DE01AF53BE4FFE0159
:103EA000EB53FE4F808191818D939C93FE01EF53E4
:103EB000FE4F808191810197F1F7FE01EF53FE4F94
:103EC000918380830E94BA360E94A73685E790E0EE
:103ED0000E948819FE01E354FE4F80E090E0AAEFB3
:103EE000B4E480839183A283B3838E0107541E4F71
:103EF000FE01E354FE4F608171818281938120E055
:103F000030E04AEF54E40E941F02DC01CB01F801CB
:103F100080839183A283B383FE01E754FE4F6081C7
:103F200071818281938120E030E040E85FE30E946C
:103F30002504882344F4FE01E954FE4F81E090E01B
:103F40009183808364C0FE01E754FE4F60817181DC
:103F50008281938120E03FEF4FE757E40E94C50341
:103F600018160CF043C0FE01E354FE4F60817181CE
:103F70008281938120E030E040E251E40E941F0200
:103F8000DC01CB018E0109541E4FBC01CD010E9402
:103F90004900DC01CB01F801918380831FC0FE0141
:103FA000EB54FE4F88EC90E091838083FE01EB544C
:103FB000FE4F808191810197F1F7FE01EB54FE4F96
:103FC00091838083DE01A954BE4FFE01E954FE4F68
:103FD00080819181019711969C938E93FE01E95403
:103FE000FE4F808191810097D1F627C08E01095440
:103FF0001E4FFE01E754FE4F6081718182819381E3
:104000000E944900DC01CB01F80191838083DE012D
:10401000AD54BE4FFE01E954FE4F808191818D93D6
:104020009C93FE01ED54FE4F808191810197F1F741
:10403000FE01ED54FE4F918380830E94A73685E8F0
:1040400090E00E948819FE01E155FE4F80E090E06B
:10405000AAEFB4E480839183A283B3838E010555D4
:104060001E4FFE01E155FE4F608171818281938177
:1040700020E030E04AEF54E40E941F02DC01CB0153
:10408000F80180839183A283B383FE01E555FE4F3F
:10409000608171818281938120E030E040E85FE3BC
:1040A0000E942504882344F4FE01E755FE4F81E079
:1040B00090E09183808364C0FE01E555FE4F6081EE
:1040C00071818281938120E03FEF4FE757E40E94A6
:1040D000C50318160CF043C0FE01E155FE4F608188
:1040E00071818281938120E030E040E251E40E94BE
:1040F0001F02DC01CB018E0107551E4FBC01CD0113
:104100000E944900DC01CB01F801918380831FC02C
:10411000FE01E955FE4F88EC90E091838083FE011B
:10412000E955FE4F808191810197F1F7FE01E95534
:10413000FE4F91838083DE01A755BE4FFE01E755F8
:10414000FE4F80819181019711969C938E93FE0181
:10415000E755FE4F808191810097D1F627C08E01EF
:1041600007551E4FFE01E555FE4F6081718182812A
:1041700093810E944900DC01CB01F8019183808387
:10418000DE01AB55BE4FFE01E755FE4F80819181A8
:104190008D939C93FE01EB55FE4F80819181019799
:1041A000F1F7FE01EB55FE4F918380830E94A73605
:1041B0008FE890E00E948819FE01EF55FE4F80E0E5
:1041C00090E0AAEFB4E480839183A283B3838E014D
:1041D00003561E4FFE01EF55FE4F608171818281B3
:1041E000938120E030E04AEF54E40E941F02DC019A
:1041F000CB01F80180839183A283B383FE01E35650
:10420000FE4F608171818281938120E030E040E83F
:104210005FE30E942504882344F4FE01E556FE4F27
:1042200081E090E09183808364C0FE01E356FE4FFD
:10423000608171818281938120E03FEF4FE757E4F5
:104240000E94C50318160CF043C0FE01EF55FE4F47
:10425000608171818281938120E030E040E251E40D
:104260000E941F02DC01CB018E0105561E4FBC01CE
:10427000CD010E944900DC01CB01F80191838083CC
:104280001FC0FE01E756FE4F88EC90E091838083CB
:10429000FE01E756FE4F808191810197F1F7FE0103
:1042A000E756FE4F91838083DE01A556BE4FFE0187
:1042B000E556FE4F80819181019711969C938E93D4
:1042C000FE01E556FE4F808191810097D1F627C00F
:1042D0008E0105561E4FFE01E356FE4F608171812F
:1042E000828193810E944900DC01CB01F801918316
:1042F0008083DE01A956BE4FFE01E556FE4F808148
:1043000091818D939C93FE01E956FE4F80819181AE
:104310000197F1F7FE01E956FE4F918380830E94D9
:10432000A7368FE990E00E948819FE01ED56FE4FF6
:1043300080E090E0AAEFB4E480839183A283B3830A
:104340008E0101571E4FFE01ED56FE4F60817181B7
:104350008281938120E030E04AEF54E40E941F0202
:10436000DC01CB01F80180839183A283B383FE013A
:10437000E157FE4F608171818281938120E030E0BE
:1043800040E85FE30E942504882344F4FE01E357DC
:10439000FE4F81E090E09183808364C0FE01E1578D
:1043A000FE4F608171818281938120E03FEF4FE772
:1043B00057E40E94C50318160CF043C0FE01ED56E9
:1043C000FE4F608171818281938120E030E040E284
:1043D00051E40E941F02DC01CB018E0103571E4FE6
:1043E000BC01CD010E944900DC01CB01F8019183A1
:1043F00080831FC0FE01E557FE4F88EC90E091835B
:104400008083FE01E557FE4F808191810197F1F78E
:10441000FE01E557FE4F91838083DE01A357BE4F17
:10442000FE01E357FE4F80819181019711969C9385
:104430008E93FE01E357FE4F808191810097D1F664
:1044400027C08E0103571E4FFE01E157FE4F6081CA
:104450007181828193810E944900DC01CB01F801C6
:1044600091838083DE01A757BE4FFE01E357FE4FC5
:10447000808191818D939C93FE01E757FE4F80814F
:1044800091810197F1F7FE01E757FE4F91838083F9
:104490008091130462E00E94A41983E00E946316D5
:1044A000FE01EB57FE4F80E090E8ABE3B5E480837C
:1044B0009183A283B3838E010F571E4FFE01EB57EA
:1044C000FE4F608171818281938120E030E04AEF6C
:1044D00054E40E941F02DC01CB01F8018083918328
:1044E000A283B383FE01EF57FE4F60817181828109
:1044F000938120E030E040E85FE30E9425048823B8
:1045000044F4FE01E158FE4F81E090E09183808306
:1045100064C0FE01EF57FE4F6081718182819381FB
:1045200020E03FEF4FE757E40E94C50318160CF058
:1045300043C0FE01EB57FE4F608171818281938100
:1045400020E030E040E251E40E941F02DC01CB0198
:104550008E0101581E4FBC01CD010E944900DC01B3
:10456000CB01F801918380831FC0FE01E358FE4F09
:1045700088EC90E091838083FE01E358FE4F8081B8
:1045800091810197F1F7FE01E358FE4F91838083FB
:10459000DE01A158BE4FFE01E158FE4F808191819E
:1045A000019711969C938E93FE01E158FE4F8081F6
:1045B00091810097D1F627C08E0101581E4FFE0150
:1045C000EF57FE4F60817181828193810E94490083
:1045D000DC01CB01F80191838083DE01A558BE4F39
:1045E000FE01E158FE4F808191818D939C93FE01E5
:1045F000E558FE4F808191810197F1F7FE01E55862
:10460000FE4F918380830E94A73681EB90E00E9449
:104610008819FE01E958FE4F80E090E0AAEFB4E46B
:1046200080839183A283B3838E010D581E4FFE01B8
:10463000E958FE4F608171818281938120E030E0F2
:104640004AEF54E40E941F02DC01CB01F801808391
:104650009183A283B383FE01ED58FE4F6081718187
:104660008281938120E030E040E85FE30E942504EE
:10467000882344F4FE01EF58FE4F81E090E09183DF
:10468000808364C0FE01ED58FE4F6081718182819C
:10469000938120E03FEF4FE757E40E94C5031816CF
:1046A0000CF043C0FE01E958FE4F608171818281A8
:1046B000938120E030E040E251E40E941F02DC01DF
:1046C000CB018E010F581E4FBC01CD010E94490045
:1046D000DC01CB01F801918380831FC0FE01E15909
:1046E000FE4F88EC90E091838083FE01E159FE4FFC
:1046F000808191810197F1F7FE01E159FE4F91838D
:104700008083DE01AF58BE4FFE01EF58FE4F80811F
:104710009181019711969C938E93FE01EF58FE4F65
:10472000808191810097D1F627C08E010F581E4FCE
:10473000FE01ED58FE4F60817181828193810E945C
:104740004900DC01CB01F80191838083DE01A3598C
:10475000BE4FFE01EF58FE4F808191818D939C9357
:10476000FE01E359FE4F808191810197F1F7FE012F
:10477000E359FE4F918380830E94DE11882309F460
:10478000E6C60E94DE118823E1F78091120462E000
:104790000E94A41980E20E94631680911204815045
:1047A0008093120480911204863008F0ACC686E033
:1047B000809312040E94A73681E061E00E94A41950
:1047C0008FEB90E00E9488198091130462E00E94B0
:1047D000A41980E20E9463168091130462E00E9493
:1047E000A41984E00E9463168091120462E00E9482
:1047F000A41980E00E946316FE01E759FE4F80E095
:1048000090E8ABE3B5E480839183A283B3838E0108
:104810000B591E4FFE01E759FE4F60817181828165
:10482000938120E030E04AEF54E40E941F02DC0153
:10483000CB01F80180839183A283B383FE01EB59FE
:10484000FE4F608171818281938120E030E040E8F9
:104850005FE30E942504882344F4FE01ED59FE4FD6
:1048600081E090E09183808364C0FE01EB59FE4FAC
:10487000608171818281938120E03FEF4FE757E4AF
:104880000E94C50318160CF043C0FE01E759FE4F05
:10489000608171818281938120E030E040E251E4C7
:1048A0000E941F02DC01CB018E010D591E4FBC017D
:1048B000CD010E944900DC01CB01F8019183808386
:1048C0001FC0FE01EF59FE4F88EC90E0918380837A
:1048D000FE01EF59FE4F808191810197F1F7FE01B2
:1048E000EF59FE4F91838083DE01AD59BE4FFE012B
:1048F000ED59FE4F80819181019711969C938E9383
:10490000FE01ED59FE4F808191810097D1F627C0BD
:104910008E010D591E4FFE01EB59FE4F60817181D2
:10492000828193810E944900DC01CB01F8019183CF
:104930008083DE01A15ABE4FFE01ED59FE4F8081FA
:1049400091818D939C93FE01E15AFE4F808191816C
:104950000197F1F7FE01E15AFE4F9183808381E0D8
:1049600061E00E94A4190E94A7368EEC90E00E949C
:104970008819FE01E55AFE4F80E090E0AAEFB4E40A
:1049800080839183A283B3838E01095A1E4FFE0157
:10499000E55AFE4F608171818281938120E030E091
:1049A0004AEF54E40E941F02DC01CB01F80180832E
:1049B0009183A283B383FE01E95AFE4F6081718126
:1049C0008281938120E030E040E85FE30E9425048B
:1049D000882344F4FE01EB5AFE4F81E090E091837E
:1049E000808364C0FE01E95AFE4F6081718182813B
:1049F000938120E03FEF4FE757E40E94C50318166C
:104A00000CF043C0FE01E55AFE4F60817181828146
:104A1000938120E030E040E251E40E941F02DC017B
:104A2000CB018E010B5A1E4FBC01CD010E944900E3
:104A3000DC01CB01F801918380831FC0FE01ED5A98
:104A4000FE4F88EC90E091838083FE01ED5AFE4F8B
:104A5000808191810197F1F7FE01ED5AFE4F91831C
:104A60008083DE01AB5ABE4FFE01EB5AFE4F8081C0
:104A70009181019711969C938E93FE01EB5AFE4F04
:104A8000808191810097D1F627C08E010B5A1E4F6D
:104A9000FE01E95AFE4F60817181828193810E94FB
:104AA0004900DC01CB01F80191838083DE01AF5A1C
:104AB000BE4FFE01EB5AFE4F808191818D939C93F6
:104AC000FE01EF5AFE4F808191810197F1F7FE01BF
:104AD000EF5AFE4F918380830E94A7368EED90E0BF
:104AE0000E948819FE01E35BFE4F80E090E0AAEF90
:104AF000B4E480839183A283B3838E01075B1E4F4E
:104B0000FE01E35BFE4F608171818281938120E031
:104B100030E04AEF54E40E941F02DC01CB01F801AF
:104B200080839183A283B383FE01E75BFE4F6081A4
:104B300071818281938120E030E040E85FE30E9450
:104B40002504882344F4FE01E95BFE4F81E090E0F8
:104B50009183808364C0FE01E75BFE4F60817181B9
:104B60008281938120E03FEF4FE757E40E94C50325
:104B700018160CF043C0FE01E35BFE4F60817181AB
:104B80008281938120E030E040E251E40E941F02E4
:104B9000DC01CB018E01095B1E4FBC01CD010E94DF
:104BA0004900DC01CB01F801918380831FC0FE0125
:104BB000EB5BFE4F88EC90E091838083FE01EB5B22
:104BC000FE4F808191810197F1F7FE01EB5BFE4F73
:104BD00091838083DE01A95BBE4FFE01E95BFE4F3E
:104BE00080819181019711969C938E93FE01E95BE0
:104BF000FE4F808191810097D1F627C08E01095B1D
:104C00001E4FFE01E75BFE4F6081718182819381BF
:104C10000E944900DC01CB01F80191838083DE0111
:104C2000AD5BBE4FFE01E95BFE4F808191818D93AC
:104C30009C93FE01ED5BFE4F808191810197F1F71E
:104C4000FE01ED5BFE4F918380830E94A7368DEEBF
:104C500090E00E948819FE01E15CFE4F80E090E048
:104C6000AAEFB4E480839183A283B3838E01055CB1
:104C70001E4FFE01E15CFE4F608171818281938154
:104C800020E030E04AEF54E40E941F02DC01CB0137
:104C9000F80180839183A283B383FE01E55CFE4F1C
:104CA000608171818281938120E030E040E85FE3A0
:104CB0000E942504882344F4FE01E75CFE4F81E056
:104CC00090E09183808364C0FE01E55CFE4F6081CB
:104CD00071818281938120E03FEF4FE757E40E948A
:104CE000C50318160CF043C0FE01E15CFE4F608165
:104CF00071818281938120E030E040E251E40E94A2
:104D00001F02DC01CB018E01075C1E4FBC01CD01EF
:104D10000E944900DC01CB01F801918380831FC010
:104D2000FE01E95CFE4F88EC90E091838083FE01F8
:104D3000E95CFE4F808191810197F1F7FE01E95C0A
:104D4000FE4F91838083DE01A75CBE4FFE01E75CCE
:104D5000FE4F80819181019711969C938E93FE0165
:104D6000E75CFE4F808191810097D1F627C08E01CC
:104D7000075C1E4FFE01E55CFE4F60817181828100
:104D800093810E944900DC01CB01F801918380836B
:104D9000DE01AB5CBE4FFE01E75CFE4F808191817E
:104DA0008D939C93FE01EB5CFE4F80819181019776
:104DB000F1F7FE01EB5CFE4F918380830E94A736E2
:104DC00089EF90E00E948819FE01EF5CFE4F80E0C1
:104DD00090E0AAEFB4E480839183A283B3838E0131
:104DE000035D1E4FFE01EF5CFE4F60817181828189
:104DF000938120E030E04AEF54E40E941F02DC017E
:104E0000CB01F80180839183A283B383FE01E35D2C
:104E1000FE4F608171818281938120E030E040E823
:104E20005FE30E942504882344F4FE01E55DFE4F04
:104E300081E090E09183808364C0FE01E35DFE4FDA
:104E4000608171818281938120E03FEF4FE757E4D9
:104E50000E94C50318160CF043C0FE01EF5CFE4F24
:104E6000608171818281938120E030E040E251E4F1
:104E70000E941F02DC01CB018E01055D1E4FBC01AB
:104E8000CD010E944900DC01CB01F80191838083B0
:104E90001FC0FE01E75DFE4F88EC90E091838083A8
:104EA000FE01E75DFE4F808191810197F1F7FE01E0
:104EB000E75DFE4F91838083DE01A55DBE4FFE015D
:104EC000E55DFE4F80819181019711969C938E93B1
:104ED000FE01E55DFE4F808191810097D1F627C0EC
:104EE0008E01055D1E4FFE01E35DFE4F6081718105
:104EF000828193810E944900DC01CB01F8019183FA
:104F00008083DE01A95DBE4FFE01E55DFE4F80811D
:104F100091818D939C93FE01E95DFE4F808191818B
:104F20000197F1F7FE01E95DFE4F918380830E94B6
:104F3000A73688E091E00E948819FE01ED5DFE4FE2
:104F400080E090E0AAEFB4E480839183A283B383EE
:104F50008E01015E1E4FFE01ED5DFE4F608171818D
:104F60008281938120E030E04AEF54E40E941F02E6
:104F7000DC01CB01F80180839183A283B383FE011E
:104F8000E15EFE4F608171818281938120E030E09B
:104F900040E85FE30E942504882344F4FE01E35EB9
:104FA000FE4F81E090E09183808364C0FE01E15E6A
:104FB000FE4F608171818281938120E03FEF4FE756
:104FC00057E40E94C50318160CF043C0FE01ED5DC6
:104FD000FE4F608171818281938120E030E040E268
:104FE00051E40E941F02DC01CB018E01035E1E4FC3
:104FF000BC01CD010E944900DC01CB01F801918385
:1050000080831FC0FE01E55EFE4F88EC90E0918337
:105010008083FE01E55EFE4F808191810197F1F76B
:10502000FE01E55EFE4F91838083DE01A35EBE4FED
:10503000FE01E35EFE4F80819181019711969C9362
:105040008E93FE01E35EFE4F808191810097D1F641
:1050500027C08E01035E1E4FFE01E15EFE4F6081A0
:105060007181828193810E944900DC01CB01F801AA
:1050700091838083DE01A75EBE4FFE01E35EFE4F9B
:10508000808191818D939C93FE01E75EFE4F80812C
:1050900091810197F1F7FE01E75EFE4F91838083D6
:1050A0000E94A73684E191E00E948819FE01EB5E20
:1050B000FE4F80E090E0AAEFB4E480839183A28366
:1050C000B3838E010F5E1E4FFE01EB5EFE4F6081CB
:1050D00071818281938120E030E04AEF54E40E94A4
:1050E0001F02DC01CB01F80180839183A283B3838B
:1050F000FE01EF5EFE4F608171818281938120E02D
:1051000030E040E85FE30E942504882344F4FE0178
:10511000E15FFE4F81E090E09183808364C0FE01F7
:10512000EF5EFE4F608171818281938120E03FEFCD
:105130004FE757E40E94C50318160CF043C0FE0168
:10514000EB5EFE4F608171818281938120E030E0CF
:1051500040E251E40E941F02DC01CB018E01015F9D
:105160001E4FBC01CD010E944900DC01CB01F801BA
:10517000918380831FC0FE01E35FFE4F88EC90E0C7
:1051800091838083FE01E35FFE4F808191810197CF
:10519000F1F7FE01E35FFE4F91838083DE01A15FA3
:1051A000BE4FFE01E15FFE4F808191810197119614
:1051B0009C938E93FE01E15FFE4F80819181009769
:1051C000D1F627C08E01015F1E4FFE01EF5EFE4F3C
:1051D00060817181828193810E944900DC01CB0151
:1051E000F80191838083DE01A55FBE4FFE01E15F80
:1051F000FE4F808191818D939C93FE01E55FFE4F70
:10520000808191810197F1F7FE01E55FFE4F918367
:1052100080830E94A73682E291E00E948819FE01F5
:10522000E95FFE4F80E090E0AAEFB4E480839183D1
:10523000A283B3838E010D5F1E4FFE01E95FFE4F17
:10524000608171818281938120E030E04AEF54E4F3
:105250000E941F02DC01CB01F80180839183A283AD
:10526000B383FE01ED5FFE4F608171818281938186
:1052700020E030E040E85FE30E942504882344F406
:10528000FE01EF5FFE4F81E090E09183808364C078
:10529000FE01ED5FFE4F608171818281938120E08C
:1052A0003FEF4FE757E40E94C50318160CF043C0C8
:1052B000FE01E95FFE4F608171818281938120E070
:1052C00030E040E251E40E941F02DC01CB018E017C
:1052D0000F5F1E4FBC01CD010E944900DC01CB01D4
:1052E000F801918380831FC0FE01E150FF4F88ECDD
:1052F00090E091838083FE01E150FF4F8081918196
:105300000197F1F7FE01E150FF4F91838083DE01A9
:10531000AF5FBE4FFE01EF5FFE4F8081918101972D
:1053200011969C938E93FE01EF5FFE4F80819181D9
:105330000097D1F627C08E010F5F1E4FFE01ED5F73
:10534000FE4F60817181828193810E944900DC015E
:10535000CB01F80191838083DE01A350BF4FFE0192
:10536000EF5FFE4F808191818D939C93FE01E3500E
:10537000FF4F808191810197F1F7FE01E350FF4FCC
:10538000918380830E94A73681E391E00E9488196F
:10539000FE01E750FF4F80E090E0AAEFB4E4808385
:1053A0009183A283B3838E010B501F4FFE01E75000
:1053B000FF4F608171818281938120E030E04AEF6C
:1053C00054E40E941F02DC01CB01F8018083918329
:1053D000A283B383FE01EB50FF4F60817181828114
:1053E000938120E030E040E85FE30E9425048823B9
:1053F00044F4FE01ED50FF4F81E090E09183808303
:1054000064C0FE01EB50FF4F608171818281938106
:1054100020E03FEF4FE757E40E94C50318160CF059
:1054200043C0FE01E750FF4F60817181828193810B
:1054300020E030E040E251E40E941F02DC01CB0199
:105440008E010D501F4FBC01CD010E944900DC01AF
:10545000CB01F801918380831FC0FE01EF50FF4F05
:1054600088EC90E091838083FE01EF50FF4F8081B4
:1054700091810197F1F7FE01EF50FF4F91838083F7
:10548000DE01AD50BF4FFE01ED50FF4F8081918195
:10549000019711969C938E93FE01ED50FF4F8081F2
:1054A00091810097D1F627C08E010D501F4FFE014C
:1054B000EB50FF4F60817181828193810E9449008E
:1054C000DC01CB01F80191838083DE01A151BF4F44
:1054D000FE01ED50FF4F808191818D939C93FE01E1
:1054E000E151FF4F808191810197F1F7FE01E15178
:1054F000FF4F918380838DE062E00E94A41985E0D4
:105500000E9463166DC080911204883038F40E94A6
:10551000A7368FE391E00E94881911C08091120490
:105520008A3038F40E94A7368CE491E00E948819F2
:1055300006C00E94A73687E591E00E9488198091F5
:10554000120462E00E94A41982E00E9463160E9485
:10555000F211882309F410C90E94F2118823E1F79F
:105560008091120462E00E94A41980E20E946316F6
:10557000809112048F5F80931204809112048C300A
:1055800050F08CE0809312040E94A73684E691E0EC
:105590000E9488191CC0809112048A3038F00E9441
:1055A000A73684E791E00E94881911C08091120407
:1055B0008A3038F00E94A73680E891E00E9488196E
:1055C00006C00E94A73688E891E00E948819809161
:1055D000120462E00E94A41980E00E946316CCC805
:1055E0000E94DE118823C1F10E94DE118823E1F7B9
:1055F0008091120462E00E94A41980E20E94631666
:10560000809112048150809312048091120486309C
:1056100050F485E0809312040E94A73684E691E05E
:105620000E94881911C080911204883038F40E94B9
:10563000A73688E991E00E94881906C00E94A73623
:1056400089EA91E00E9488198091120462E00E9428
:10565000A41982E00E9463160E94F211882309F4C3
:10566000BFCF0E94F2118823E1F78091120462E01B
:105670000E94A41980E20E946316809112048F5F39
:1056800080931204809112048C3008F499C68CE047
:10569000809312048091120462E00E94A41980E0B9
:1056A0000E9463160E94A7368AEB91E00E94881937
:1056B000FE01E551FF4F80E090E0AAEFB4E4808363
:1056C0009183A283B3838E0109511F4FFE01E551DF
:1056D000FF4F608171818281938120E030E04AEF49
:1056E00054E40E941F02DC01CB01F8018083918306
:1056F000A283B383FE01E951FF4F608171818281F2
:10570000938120E030E040E85FE30E942504882395
:1057100044F4FE01EB51FF4F81E090E091838083E0
:1057200064C0FE01E951FF4F6081718182819381E4
:1057300020E03FEF4FE757E40E94C50318160CF036
:1057400043C0FE01E551FF4F6081718182819381E9
:1057500020E030E040E251E40E941F02DC01CB0176
:105760008E010B511F4FBC01CD010E944900DC018D
:10577000CB01F801918380831FC0FE01ED51FF4FE3
:1057800088EC90E091838083FE01ED51FF4F808192
:1057900091810197F1F7FE01ED51FF4F91838083D5
:1057A000DE01AB51BF4FFE01EB51FF4F8081918174
:1057B000019711969C938E93FE01EB51FF4F8081D0
:1057C00091810097D1F627C08E010B511F4FFE012A
:1057D000E951FF4F60817181828193810E9449006C
:1057E000DC01CB01F80191838083DE01AF51BF4F13
:1057F000FE01EB51FF4F808191818D939C93FE01BF
:10580000EF51FF4F808191810197F1F7FE01EF5138
:10581000FF4F918380830E94A73687EC91E00E941E
:105820008819FE01E352FF4F80E090E0AAEFB4E454
:1058300080839183A283B3838E0107521F4FFE01A1
:10584000E352FF4F608171818281938120E030E0DB
:105850004AEF54E40E941F02DC01CB01F80180836F
:105860009183A283B383FE01E752FF4F6081718170
:105870008281938120E030E040E85FE30E942504CC
:10588000882344F4FE01E952FF4F81E090E09183C8
:10589000808364C0FE01E752FF4F60817181828185
:1058A000938120E03FEF4FE757E40E94C5031816AD
:1058B0000CF043C0FE01E352FF4F60817181828191
:1058C000938120E030E040E251E40E941F02DC01BD
:1058D000CB018E0109521F4FBC01CD010E9449002E
:1058E000DC01CB01F801918380831FC0FE01EB52E4
:1058F000FF4F88EC90E091838083FE01EB52FF4FD5
:10590000808191810197F1F7FE01EB52FF4F918366
:105910008083DE01A952BF4FFE01E952FF4F808113
:105920009181019711969C938E93FE01E952FF4F4E
:10593000808191810097D1F627C08E0109521F4FB7
:10594000FE01E752FF4F60817181828193810E9445
:105950004900DC01CB01F80191838083DE01AD5267
:10596000BF4FFE01E952FF4F808191818D939C933F
:10597000FE01ED52FF4F808191810197F1F7FE0109
:10598000ED52FF4F918380830E94A73689ED91E00D
:105990000E948819FE01E153FF4F80E090E0AAEFDA
:1059A000B4E480839183A283B3838E0105531F4F98
:1059B000FE01E153FF4F608171818281938120E07C
:1059C00030E04AEF54E40E941F02DC01CB01F801F1
:1059D00080839183A283B383FE01E553FF4F6081EF
:1059E00071818281938120E030E040E85FE30E9492
:1059F0002504882344F4FE01E753FF4F81E090E043
:105A00009183808364C0FE01E553FF4F6081718103
:105A10008281938120E03FEF4FE757E40E94C50366
:105A200018160CF043C0FE01E153FF4F60817181F5
:105A30008281938120E030E040E251E40E941F0225
:105A4000DC01CB018E0107531F4FBC01CD010E9429
:105A50004900DC01CB01F801918380831FC0FE0166
:105A6000E953FF4F88EC90E091838083FE01E95376
:105A7000FF4F808191810197F1F7FE01E953FF4FBC
:105A800091838083DE01A753BF4FFE01E753FF4F91
:105A900080819181019711969C938E93FE01E7532B
:105AA000FF4F808191810097D1F627C08E01075367
:105AB0001F4FFE01E553FF4F608171818281938109
:105AC0000E944900DC01CB01F80191838083DE0153
:105AD000AB53BF4FFE01E753FF4F808191818D9300
